:020000040000FA
:06000000020B020202489F
:03002B0002093D8A
:0300330002075968
:030043000207F2BF
:030053000201792E
:03006B0002073F4A
:100083000201DD0101FF050301C810C810C810C833
:1000930010840F7E0FC810971E000000005B1F0026
:1000A3000000000C0000000C0001040000A8120076
:1000B30000000000006213000000000000000000C8
:1000C30000FFFF0101010030050000008105E80386
:1000D30064006400B801020200080000050207057D
:1000E3001E02051E0A03B80B020102F1FF021021D2
:1000F3008670007E4A4A4A4A4A7E0000000002FE99
:1001030001407F41417F41417F41417F40000000E9
:10011300FC042424FCA5A6A4FC242424040080605D
:100123001F808042462A12122A2642C04000000045
:1001330000000000000000000000000000000000BC
:1001430036360000000000000000000000001060D0
:1001530002CC00003E2AAA2AAA2A3E000000080870
:10016300FE0140424C407F407F484442400096514C
:10017300180002020612C0E074F2120461A2AFE496
:1001830033FED2AFE5A7FFE5A1F5085F5410600683
:100193001219BC75A1EFE5085F540860081219C273
:1001A30075A1F7802BEFA2E0C0D0E508A2E092F0A2
:1001B300120A3F158182F05017906198E0F8900879
:1001C3005AE0C398A2D265D0335002E8F075A1FE7D
:1001D300EEA2E092AF7F010204C0C0E074F2120409
:1001E30061A2AFE433FED2AF9061A4E0F8759B0047
:1001F300E59158540860087591F7121A0A802AE5A8
:100203009158541060087591EF121A10801BE8A2E0
:10021300E0C0D0E591A2E092F0120A3F158182F08E
:100223005007E0C2E0F0121B549061A3E0F8E5E947
:10023300585404600E121B2A75E9FB906193E0A2E7
:10024300E640F2808BC0E074F2120461A2AFE433A3
:10025300FED2AF9061A5E0F8E5BF5854046006757F
:10026300BFFB121B6C0201D3C3E498F8E499F912A3
:1002730002AC8026C3E49AFAE49BFBE920E7E91287
:1002830002ACE498F8E499F922C3E498F8E499F904
:100293001202ACE498F8E499F9C3E49AFAE49BFBFC
:1002A30022EB20E7CFE920E7E0B90010BB0008E824
:1002B3008AF084F8AAF022E4FBC8FA22EB70227BCE
:1002C30010C833C8C933C9335007C39AC3DBF2809C
:1002D300069A50012ADBEAC833F4C8C933F4C9FAD1
:1002E3002275F008E4C833C8C933C933C99AC99B16
:1002F3005004C92AC93BD5F0ECFBC833F4C8E4C9A0
:10030300FA22080808EAC0E0EBC0E086F0E7A4FAA6
:10031300180986F0E7A42AFA180986F0E7A42AFA4E
:10032300180986F0E7A42AFA1986F0E7A4FBE5F09A
:100333002AFA190886F0E7A42BFBE5F03AFA190824
:1003430086F0E7A42BFBE5F03AFA18180986F0E7E4
:10035300A4C5F02BFBE43AFA1908E7C5F0C6A426B6
:10036300F6E5F03BFBE43AFA1886F0E7A4F6E5F08D
:100373000826F6E43B08F6E43A08F6D0E0FBD0E0C2
:10038300FA22E4CFC0E0E4CEC0E0E4CDC0E0E4CCA8
:10039300C0E075F020C3E633F608E633F608E6332B
:1003A300F608E633F6181818EC33FCED33FDEE339C
:1003B300FEEF33FFC3EC9709ED9709EE9709EF972B
:1003C300191919400FFFEC97FC09ED97FD09EE97FA
:1003D300FE191906D5F0BEECF709EDF709EEF7099A
:1003E300EFF7191919D0E0FCD0E0FDD0E0FED0E022
:1003F300FF222518C582C0E0E51934FFC583C0E09C
:10040300E518C3958224F810AF08858319858218EF
:100413008008858319858218D2AFCEF0A3E520F03A
:10042300A37808E608F0A3DEFAEFF0A3E58124FA47
:10043300F8E608F0A3E608F0A3E608F0A30808E648
:1004430008F0A3E608F0A315811581D0E0FED0E003
:10045300F8158115811581E8C0E0EEC0E022C0D017
:100463002518C582C0E0E51934FFC583C0E0E5184F
:10047300C3958224F310AF088583198582188008F9
:10048300858319858218D2AFC8F0A3E9F0A3EAF0F7
:10049300A3EBF0A37908E709F0A3D8FAECF0A3EDF6
:1004A300F0A3EEF0A3EFF0A3D0E0F0A3D0E0F0A32D
:1004B300D0E0F0A3E520F0A3E5F0F0A322851983B3
:1004C300851882E0C0E0A3E0F9A3E0FAA3E0FBA370
:1004D3007808E0F608A3DFFAE0FCA3E0FDA3E0FE62
:1004E300A3E0FFA3E0C0E0A3E0C0E0A3E0F5D0A356
:1004F300E0F520A3E0A3F5F010AF0885831985820A
:10050300188008858319858218D2AFD082D083D012
:10051300E0F8D0E032120B64B9000302055AE4900C
:10052300030178B1790A8002F0A3D8FCD9FA900CC0
:10053300B1AA82AB8390008678F479018015E493A5
:10054300A3AC82AD838A828B83F0A3AA82AB838C14
:10055300828D83D8E9D9E775824975839174031233
:1005630008B575820075831E74001208B575F01006
:100573008E1A8F1B85821F85831E8518828519839A
:10058300E0CEA3E0CF851F82851E83EBC9EAC8EDC9
:10059300CBECCAC3E833C8E933C9EA33CAEB33CB7C
:1005A300C3EA9EF51DEB9FF51CB35004AB1CAA1DBB
:1005B300EC33CCED33CDD5F0DAAE1AAF1B22D083BA
:1005C300D082ECC0E0EDC0E0E493A3FCE493A3FD90
:1005D300ED4C600D120699EC24FFFCED34FFFD8019
:1005E300EFE493A3FCE493A3FDED4C600D12079D90
:1005F300EC24FFFCED34FFFD80EFD0E0FDD0E0FC08
:10060300E493A3C0E0E493C0E022851983851882B4
:10061300E0A3FEE0A3F5207808E0A3F608DFFAE004
:10062300A3FFE0A3C0E0E0A3C0E0E0A3C0E0E0A339
:10063300C0E0E0A3C0E010AF08858218858319806D
:1006430008858218858319D2AFD083D0820208BB74
:10065300D083D082E9C0E0E493A3C386F0C5F095CC
:10066300F0F908E493A386F0C5F095F0700BE493DA
:10067300A3C3994005E9048002A3E475F002A4250D
:1006830082F582E5F03583F583D0E0F9E493A3C0E6
:10069300E0E493C0E022C0E0C3E4939608740193BE
:1006A3009618400FE49366700808740193661870F7
:1006B300007019A3A3C3E49396087401939618A337
:1006C300A3400DD0E0D0E0D0E00205FDA3A3A3A397
:1006D300A3A3D0E022D083D082C5F0E493A3C5F0D6
:1006E300C395F0F5F0E493A3C395F04005E5F0045A
:1006F3008001E475F002A42582F582E5F03583F5E7
:1007030083E493A3C0E0E493C0E022740480047400
:10071300028000CCC0E0EDC0E0E518C39CCCAD196D
:1007230050011D10AF068C188D1980068C188D1979
:10073300D2AF120837D0E0FDD0E0FC22C0E074F263
:10074300120461E589A2E15003121890758900C271
:10075300C57F010204C0C0E074F2120461E58BA2FC
:10076300E05003121890758B00C2E880E474028095
:1007730000CCC0E0EDC0E0E518C39CCCAD1950013E
:100783001D10AF068C188D1980068C188D19D2AFE9
:10079300120815D0E0FDD0E0FC22C0E0C0F088F0E4
:1007A300E4936670080874019366187000A8F0A3B8
:1007B300A3700BD0F0D0E0D0E0D0E00205FDA3A3FE
:1007C300D0F0D0E022D083D082CCC0E0E493A36009
:1007D300061208961470FAE493A3600612098714AC
:1007E30070FAD0E0FCE493A3C0E0E493C0E022C03D
:1007F300E074F2120461A2AFE433FED2AFC2C0E5EB
:10080300D1A2E45003121932EEA2E092AF7F0102AB
:1008130004C0CAC0E0E493A3C582CCC582C583CD1E
:10082300C583F0A3C582CCC582C583CDC583DAE574
:10083300D0E0CA22CAC0E0E0A3C582CCC582C5838A
:10084300CDC583F0A3C582CCC582C583CDC583DA6C
:10085300E6D0E0CA227009080808226016181818A2
:10086300C6C333C608C633C608C633C608C633C6AE
:10087300D5E0EA22C008C3E096F50808A3E0964253
:100883000808A3E096420808A3E09645087001D340
:10089300D00822C0E0E493A3D39C5010E493A3C3F5
:1008A3009C400AD0E0D0E0D0E00207E5A3A3A3D0A8
:1008B300E022C09FF59FE473D09F22D083D082C0F3
:1008C3009FE493C0E0740193C0E0740293F59F2208
:1008D3007404800A74038006740280027401C0E009
:1008E300F4041208EED0E0120B3F222518F5821013
:1008F300AF08F518400215198008F51840021519BC
:10090300D2AF85198322BB0102E722C082C083894B
:10091300828A83BB0003E08002E493D083D08222E7
:10092300C0D0251810AF08F518500205198008F536
:100933001850020519D2AFD0D022C0E0C0D0E8C011
:10094300E0E5A8D2AFC2C7A2E792AFD0E0F8D0D01B
:10095300D0E0326016080808C6C313C618C613C60B
:1009630018C613C618C613C6D5E0EA22C3E0C69656
:10097300F608A3E0C696F608A3E0C696F608A3E039
:10098300C696F622C0E0E493A36C7009D0E0D0E0F1
:10099300D0E00207E5A3A3D0E022251810AF08F5A5
:1009A30018400215198008F51840021519D2AF2214
:1009B300E76670100809E766700A0809E7667004BD
:1009C3000809E76622E066701008A3E066700A086B
:1009D300A3E066700408A3E06622C3E09608A3E0E0
:1009E3009608A3E09608A3E096A2D265D03322C36B
:1009F300E096F008A3E096F008A3E096F008A3E0E1
:100A030096F022E026F008A3E036F008A3E036F0E3
:100A130008A3E036F022E627F60809E637F60809C8
:100A2300E637F60809E637F622E026F608A3E036AD
:100A3300F608A3E036F608A3E036F622C0E0E8C0E5
:100A4300E0E58124FCF8E6A2E7D0E0F8D0E022E676
:100A530047F60809E647F60809E647F60809E647B0
:100A6300F622E657F60809E657F60809E657F608A8
:100A730009E657F622E056F608A3E056F608A3E087
:100A830056F608A3E056F622E056F008A3E056F027
:100A930008A3E056F008A3E056F022700422600D8C
:100AA30018C6C333C608C633C6D5E0F41822E4C358
:100AB30096F608E496F608E496F608E496F62260BD
:100AC3000D08C6A2E713C618C613C6D5E0F322C69F
:100AD300F4C608C6F4C608C6F4C608C6F4C622C3DC
:100AE300E7960809E7960809E7960809E79622C3F7
:100AF300E09608A3E09608A3E09608A3E096227583
:100B0300D00075814075180175190300020518E0BE
:100B1300F608A3E0F608A3E0F608A3E0F622600CCB
:100B230008C6C313C618C613C6D5E0F422E6F008F8
:100B3300A3E6F008A3E6F008A3E6F022CAC0E0E6C5
:100B4300F0A308DAFAD0E0FA22E0FAA3E0FBA3E08C
:100B5300FCA3E0FD22EAF0A3EBF0A3ECF0A3EDF09D
:100B630022E5C754F84401F5C77901222518F58217
:100B7300E43519F58322C2AF75D69F020000221215
:100B830008BEA6B2011208BE9DB3011208BEECB5A1
:100B9300011208BE3FB7011208BEE2B7011208BE38
:100BA3002DB9011208BE4BB9011208BE3259001209
:100BB30008BE4459001208BE9659001208BEF759E0
:100BC300001208BE815A001208BE255B001208BE3F
:100BD300795B001208BE925B001208BEB85B00127C
:100BE30008BEF35B001208BE375C001208BE5E5CF1
:100BF300001208BEAF5C001208BE5F5D001208BEA3
:100C0300175E001208BEDF5E001208BEBC5F001252
:100C130008BE4260001208BE5160001208BE5C604C
:100C2300001208BE6561001208BE7661001208BE9C
:100C3300EC61001208BE7E62001208BED66200128A
:100C430008BE9C63001208BECD63001208BE126486
:100C5300001208BE1F64001208BEB365001208BE6E
:100C63001667001208BE3268001208BE9C6A0012A2
:100C730008BEA76A001208BEB16A001208BEBC6AA9
:100C8300001208BEC66A001208BED06A001208BE6F
:100C9300DB6A001208BEE66A001208BE176B001278
:100CA30008BE3B6B001208BE5F6B001208BEC46B2C
:100CB300001208BE086C001208BE246C001208BEA5
:100CC3009B6C001208BED36C001208BE1F6D00128D
:100CD30008BE7C6D001208BE5E6F001208BEE46F92
:100CE300001208BEB570001208BEC573001208BE1C
:100CF3001A74001208BE4674001208BE92750012E0
:100D030008BEE275001208BE3776001208BE3877B7
:100D1300001208BED077001208BE5278001208BE37
:100D2300F278001208BE7D21001208BEB62100121F
:100D330008BE9023001208BECF23001208BE192458
:100D4300001208BEBE24001208BE1D25001208BEF4
:100D53005125001208BEBE25001208BEDB26001274
:100D630008BEE327001208BE7928001208BEC02B74
:100D7300001208BE692C001208BE452D001208BEE1
:100D8300A62D001208BEC32E001208BEED300012BD
:100D930008BEA431001208BEAE31001208BEE13114
:100DA300001208BEA832001208BE4333001208BE68
:100DB300A833001208BED133001208BEF333001269
:100DC30008BE2236001208BEF936001208BE3D37AF
:100DD300001208BEAA37001208BE6538001208BE0A
:100DE3009738001208BEDB38001208BE0E39001215
:100DF30008BE6339001208BEB839001208BE4C3A67
:100E0300001208BEAE3A001208BE163B001208BE1E
:100E1300BF3C001208BEA73D001208BEE93E001207
:100E230008BE1741001208BED741001208BE06448F
:100E3300001208BEA944001208BEE744001208BE0F
:100E43009346001208BEA746001208BEB146001220
:100E530008BEDB46001208BEE746001208BE06477E
:100E6300001208BEBD47001208BEFC47001208BEB0
:100E73000648001208BEBA48001208BEB94900125B
:100E830008BEB24A001208BE4F4B001208BEF14B17
:100E9300001208BE084C001208BE3F4C001208BEE8
:100EA3005D4C001208BEA14C001208BEC64C0012D5
:100EB30008BEAC4D001208BE184E001208BE924E7A
:100EC300001208BEA14F001208BEE050001208BE77
:100ED3004251001208BEFC51001208BE1F520012FC
:100EE30008BEF352001208BE3E53001208BE8053E0
:100EF300001208BED753001208BE0E54001208BEDB
:100F03003C54001208BE7554001208BE9A540012D5
:100F130008BE2255001208BE4557001208BEA4574A
:100F2300001208BE3858001208BEA458001208BEAA
:100F3300F858001208BEFEB5031208BE3DB60312F0
:100F430008BE90BA011208BEEABA011208BE46BB37
:100F5300011208BE92BB011208BEADBB011208BE4E
:100F6300DEBB011208BEFBBB011208BE07BC0112A7
:100F730008BE7BBD011208BE94BD011208BEFBBDB5
:100F8300011208BE0EBE011208BE1CBE011208BE2D
:100F9300D0BE011208BEB4BF011208BEBAC001120E
:100FA30008BE40C1011208BE4AC1011208BEB7C142
:100FB300011208BECEC1011208BE00C2011208BE52
:100FC30039C2011208BE63C2011208BEC4C20112B3
:100FD30008BEE4C2011208BE02C3011208BE48C320
:100FE300011208BE6EC4011208BEBBC4011208BEC2
:100FF300EAC4011208BE60C5011208BE88C5011209
:1010030008BEC1C5011208BECFC5011208BE27C65E
:10101300011208BE76C6011208BEB5C6011208BE8B
:10102300E5C6011208BE11C7011208BE1CC7011292
:1010330008BE3AC7011208BEFCC7011208BE06C8A3
:10104300011208BE41C8011208BE57C8011208BEEA
:1010530060C8011208BEB5C8011208BEC9C8011292
:1010630008BED7C9011208BEEAC9011208BEFFC9EA
:10107300011208BEA1CA011208BE24CB011208BE88
:10108300E2CB011208BEEDCB011208BE13CD011253
:1010930008BE2FCD011208BE81CD011208BEC0CDFE
:1010A300011208BED5CD011208BE17CE011208BE2B
:1010B30064D0011208BEE2D0011208BE55D101125C
:1010C30008BE77D3011208BE8FD3011208BE92D394
:1010D300011208BE9ED3011208BEB2D3011208BE8C
:1010E300BAD3011208BEEDD3011208BE9DD401127A
:1010F30008BE13D5011208BE86D5011208BE3AD622
:10110300011208BEEFD6011208BE0ED7011208BEA7
:10111300AED7011208BEBAD7011208BEE5D7011235
:1011230008BEE8D7011208BE52D8011208BE7AD908
:10113300011208BE52DA011208BEDDDA011208BE3E
:10114300F6DB011208BEB3DC011208BEECDC0112AF
:1011530008BE1DDD011208BEBDDD011208BEEDDDB6
:10116300011208BEC8DE011208BE61DF011208BE0B
:10117300ECDF011208BE9DE0011208BE1FE101125F
:1011830008BE51E1011208BE92E1011208BE71D2FC
:10119300021208BED6D2021208BE13D3021208BE30
:1011A30062D3021208BE78D5021208BE5BD70212C0
:1011B30008BEC5DA021208BE00DB021208BE22DB3B
:1011C300021208BE85DB021208BEB9DB021208BE9A
:1011D300DCDB021208BE09DC021208BE65DC021267
:1011E30008BE5BBC021208BED9BC021208BE0FBD0A
:1011F300021208BE7BBD021208BEEEBE021208BE7A
:101203000ABF021208BE4FBF021208BEDDBF0212A0
:1012130008BE36C0021208BE63C1021208BE75C200
:10122300021208BED2C2021208BE3EC3021208BE98
:101233009FC3021208BEE0C3021208BE8DC402128D
:1012430008BE9FC5021208BECAC5021208BE15C653
:10125300021208BE5CC6021208BEEEC6021208BE27
:10126300A9C7021208BE62A4031208BE92A4031205
:1012730008BEE7A4031208BE03AB031208BE14ABF7
:10128300031208BE65AB031208BEAAAB031208BE65
:1012930054AC031208BE6EB2031208BECFA70312EA
:1012A30008BE27A9031208BE20C8021208BEC5C87B
:1012B300021208BEE5C8021208BE05C9021208BE22
:1012C30019C9021208BE71C9021208BEA1C90212CD
:1012D30008BE22CB021208BEC8CB021208BEAACC9B
:1012E300021208BEFBCC021208BE3ECD021208BE9B
:1012F30081CD021208BEE7CD021208BE08CE02124B
:1013030008BE94CE021208BEC5CE021208BE39CF63
:10131300021208BEE7D0021208BEC1D1021208BEF3
:1013230003D2021208BE5DD2021208BE8AA20312C1
:1013330008BEABA2031208BEE1A3031208BE0BA4AE
:10134300031208BE878E031208BE028F031208BE63
:101353000D8F031208BE2E8F031208BE1EB0021299
:1013630008BE21B0021208BEDBB0021208BE06B1ED
:10137300021208BE4DB1021208BE72B1021208BEBB
:1013830093B1021208BEC7B1021208BE00B2021224
:1013930008BE29B3021208BE60B3021208BE80B3AE
:1013A300021208BE1BB4021208BEE0B4021208BE49
:1013B30017B5021208BE8CB6021208BE2FB702126E
:1013C30008BE28B8021208BE51B8021208BEA5B85A
:1013D300021208BE6BB9021208BE99B9021208BE06
:1013E3002EBB021208BEAFBB021208BEE2BB021242
:1013F30008BE15F6011208BE1FF6011208BE6BF6F1
:10140300011208BED9F6011208BE61A9011208BE75
:1014130011F7011208BEC1F7011208BE55FA0112F5
:1014230008BE5EFA011208BEB1FA011208BEDAFA6A
:10143300011208BE41FB011208BED2FB011208BE15
:1014430014FC011208BE5EFC011208BEBDFC0112B1
:1014530008BE4EFD011208BE8DFD011208BECCFD73
:10146300011208BE01FE011208BE8AB2011208BEB3
:1014730025FE011208BE44FE011208BE4DFE0112F4
:1014830008BE03FF011208BE43FF011208BE12F497
:10149300021208BEE5F4021208BEFFF4021208BEEF
:1014A30010F5021208BE25F7021208BE44F7021215
:1014B30008BE58A0031208BE8EA0031208BED7A010
:1014C300031208BE27A2031208BEC7E1011208BE19
:1014D30006E3011208BE42E3011208BE01E5011250
:1014E30008BE2AE5011208BEBDE7011208BE01E8E5
:1014F300011208BE8AE9011208BE22EA011208BEDF
:101503008AEA011208BE2BEB011208BE6DEB011231
:1015130008BEADEB011208BE38ED011208BEA8EEFD
:10152300011208BECDF0011208BEFBF0011208BE85
:1015330022F1011208BE2BF1011208BE86F101123D
:1015430008BE19F2011208BE37F5011208BEB8F53C
:10155300011208BE92B7031208BEB3B5031208BE48
:10156300228B031208BE358B031208BED28B0312E3
:1015730008BE0D8C031208BE288C031208BE4D8CC6
:10158300031208BE928C031208BEC38C031208BE5A
:10159300F48C031208BE7A8E031208BECCAD03127C
:1015A30008BE02AE031208BE1EAE031208BE60AE32
:1015B300031208BE70AE031208BE05AF031208BEC5
:1015C3000FAF031208BE9DF8021208BE57F90212AC
:1015D30008BE07FA021208BE4CFA021208BEDCFA71
:1015E300021208BE52FB021208BE8FA0021208BEEE
:1015F300E7A0021208BE91A1021208BE39A202128C
:1016030008BE96A2021208BEEFA2021208BE03A3EE
:10161300021208BECDA4021208BE48A5021208BEDB
:1016230072A5021208BE2FA7021208BE4AA7021211
:1016330008BE99A7021208BEAFA7021208BEBCA734
:10164300021208BEF0A7021208BE06A8021208BEC4
:101653008CA8021208BE9BA8021208BEF4A80212AC
:1016630008BE4EA9021208BE9CA9021208BEA6AA71
:10167300021208BE28AD021208BEC2AD021208BE95
:1016830004AE021208BE99AE021208BEB6AE021232
:1016930008BEB9AE021208BEBCAE021208BE2FAF1E
:1016A300021208BE4AAF021208BE76AF021208BE8B
:1016B300B1AF021208BEB4AF021208BEC7AF021226
:1016C30008BEEEAF021208BE6CFF011208BE78FF1F
:1016D300011208BEB2FF011208BEBE90021208BE7C
:1016E300E990021208BEB591021208BE3A920212A4
:1016F30008BEA392021208BEEF92021208BE6E93B6
:10170300021208BE0094021208BE8C94021208BE94
:10171300CE94021208BE3A99021208BEBA9A021275
:1017230008BEF99A021208BEC29B021208BE769C3A
:10173300021208BE269E021208BEB29E021208BE04
:101743000080021208BEBA80021208BE2C81021267
:1017530008BE3B81021208BEB581021208BE248274
:10176300021208BE2E83021208BE5783021208BE5D
:10177300F783021208BE4584021208BEB584021222
:1017830008BEE985021208BEC586021208BE368766
:10179300021208BEB388021208BE7589021208BE7F
:1017A300108A021208BE6B8A021208BED68A02127F
:1017B30008BEDA8B021208BE9B8D021208BE3A8E57
:1017C300021208BEAC8E021208BE698F021208BE56
:1017D3000E94031208BE6294031208BEBA94031255
:1017E30008BE0595031208BE6795031208BE00964E
:1017F300031208BE6896031208BE7496031208BE4D
:10180300029E031208BE339E031208BEED9E03120E
:1018130008BE539F031208BEC49F031208BED4918F
:10182300031208BE6093031208BE61B3031208BE1D
:1018330072B3031208BE12B4031208BE17A6031232
:1018430008BE25A6031208BEED7F001208BECCB465
:10185300031208BEDCB4031208BEF7B4031208BEB9
:1018630058B5031208BE6CB1031208BEF1B10312DE
:1018730008BE55B2031208BE5AB0031208BE7CB0AC
:10188300031208BEE6B0031208BEF1B0031208BE8D
:1018930035B1031208BE0080031208BE0E80031286
:1018A30008BE4F80031208BE6980031208BEF3808E
:1018B300031208BE1881031208BE3581031208BE45
:1018C3005281031208BE7781031208BE9F8103125F
:1018D30008BEE781031208BE6282031208BE0783B3
:1018E300031208BE5983031208BE1884031208BEEC
:1018F3002684031208BEA084031208BE8485031243
:1019030008BE3D87031208BE52B7031208BEA5796D
:10191300001208BE127A001208BED37A001208BE63
:10192300437B001208BE4C7C001208BEC47D00122B
:1019330008BE287E001208BE7D7E001208BE867E89
:10194300001208BE957E001208BEA87E001208BED3
:10195300BE7E001208BEC77E001208BEEDE502126D
:1019630008BE42E6021208BE3EE8021208BE70E854
:10197300021208BE92E8021208BEABE8021208BEC9
:10198300C4E8021208BECEE9021208BE69EA0212D6
:1019930008BE6BAC031208BE8FAC031208BEA8AC22
:1019A300031208BEDBAC031208BE0CAD031208BE63
:1019B3003AAD031208BE9CAD031208BEABAD0312D1
:1019C30008BEB5AD031208BEC2AD031208BEAF9682
:1019D300031208BED596031208BE1297031208BE5F
:1019E3002197031208BE4097031208BEA89703125B
:1019F30008BEB197031208BE1098031208BE3498AC
:101A0300031208BEF398031208BE0099031208BE1E
:101A13001199031208BE8BB6031208BEA8B60312AF
:101A230008BEE0EA021208BE3EEC021208BE4BEC0E
:101A3300021208BE5EEC021208BE7DEC021208BE62
:101A430093EC021208BEA7EC021208BE1CED0212B0
:101A530008BE81ED021208BE31EE021208BE06EF87
:101A6300021208BE16EF021208BE25EF021208BECC
:101A730033B4031208BE57B4031208BE7FB4031273
:101A830008BEA7B4031208BE3F99031208BE6699A5
:101A9300031208BE8799031208BEEC99031208BE0D
:101AA300A59B031208BEBE9B031208BECA9B03126A
:101AB30008BEDE9B031208BEFC9B031208BE069CF5
:101AC300031208BE109C031208BE239C031208BE17
:101AD300769C031208BEAF9C031208BEDE9C031261
:101AE30008BE2C9D031208BE7B9D031208BE969D63
:101AF300031208BEA09D031208BEB19D031208BEC7
:101B0300F79D031208BE62B5031208BEB1DC0212D0
:101B130008BEDBDC021208BEF7DC021208BE0ADDD7
:101B2300021208BE20DD021208BE7DDD021208BECD
:101B3300B0DD021208BEECE1021208BE12E302128B
:101B430008BE45E3021208BE91E3021208BEBDE4DB
:101B5300021208BEE5E4021208BEFAE4021208BE4D
:101B63000AE5021208BE4EE5021208BEAFE50212F4
:101B730008BEBFE5021208BE27AF031208BE42AF7C
:101B8300031208BE6BAF031208BE85AF031208BE73
:101B9300AAAF031208BEC9AF031208BEE1AF031216
:101BA30008BE0FB0031208BE29B0031208BE47B621
:101BB300031208BEA287031208BEA987031208BE38
:101BC300B588031208BEE588031208BE0B89031209
:101BD30008BE2E89031208BE5089031208BE8A89E3
:101BE300031208BEF089031208BE298A031208BE35
:101BF300758A031208BEA28A031208BEC28A0312A0
:101C030008BE76A9031208BE88A9031208BE73AAE8
:101C1300031208BE00AB031208BEDA7E001208BE30
:101C23004C7F001208BE8A7F001208BECB7F0012D1
:101C330008BEE3FC021208BEFFFC021208BE4EFD02
:101C4300021208BE6AFD021208BE9BFD021208BE04
:101C5300ABFD021208BE97FE021208BEA1FE0212DD
:101C630008BEAEFE021208BEBEFF021208BED2FFBD
:101C7300021208BEDBFF021208BE5EEF021208BEAC
:101C8300A3F3021208BEA8F3021208BEFDB60312A4
:101C930008BEC7B6031208BE2AB7031208BE74B73C
:101CA300031208BEB5A8011208BE06A7011208BE9A
:101CB300C1A4011208BE48A4011208BEEFA3011279
:101CC30008BE83A3011208BE5AA3011208BE4DA188
:101CD300011208BE19A1011208BEE6A0011208BE36
:101CE300CAA0011208BEF09F011208BEA89F0112EC
:101CF30008BEDD9D011208BE5D9D011208BE5A9DFE
:101D0300011208BE619C011208BE2F9C011208BE7D
:101D13006C9B011208BE9799011208BE2899011203
:101D230008BEFA98011208BE1AB2011208BED1B158
:101D3300011208BE89B1011208BEC7B0011208BE64
:101D43003AB0011208BEF798011208BEE4980112D6
:101D530008BE7C98011208BE6B98011208BE2DB014
:101D6300011208BE4C97011208BE1697011208BE55
:101D7300D996011208BE7A96011208BE3BAD011234
:101D830008BE13FE011208BE4996011208BE049351
:101D9300011208BEF591011208BE8491011208BE1A
:101DA3004991011208BE1491011208BE0891011253
:101DB30008BE6890011208BEAF8F011208BE828D63
:101DC300011208BE0E8B011208BECC8A011208BE96
:101DD3009789011208BE4C89011208BE7E88011240
:101DE30008BED587011208BE7187011208BEAB87F2
:101DF300011208BE8DAA011208BEFAF60100000006
:101E030080FBE47300013636010100010201000189
:101E13000301000104010606050200000701003466
:101E23000801000F090401010D0100FF0E08000065
:101E330017020000190100FF1A0100011B0100FE37
:101E43001C0100081D0200001F0100012001000108
:101E5300210200002301000F2402000026010001DB
:101E630027010008280200FF2A0100072B01024076
:101E73002C0100002D0100012E0100012F0100FFA4
:101E830030010B1C310800003A0100083B01000F30
:101E93002F01000003007100300160001100700089
:101EA3003102200350048000100061000000140080
:101EB3006300730072006200430000001300060019
:101EC30000000000040012000000000000000000F9
:101ED30004000400370037003C0244000000000007
:101EE30000000000650000003500810000000500CF
:101EF300000083000000030271023001600211023E
:101F030070020102020202028002100261023A0020
:101F1300410063027302720262024302000213026F
:101F23003800000200020402120200020002000252
:101F3300000204020402370037003C02440200029C
:101F4300390000020002650200023502810200022C
:101F530005028202830200020103710301030103EC
:101F6300010301030103220302030103100300031E
:101F73000003000300030003000300034203000304
:101F830024030603000300030403120325032303AE
:101F93002503230304030403000300030003440392
:101FA30000030003230300036503210035038103BA
:101FB3000003050300030003000301017101010194
:101FC3000101110101013101010101018001100130
:101FD30061013B001400630173017201620143015B
:101FE3000001130106013D01350004011201000146
:101FF30000010001000104010401330133013C012C
:102003004401320136000001000165010001350081
:1020130081010001050182018301000136000100F5
:10202300060000000F000000000000000000000098
:10203300000003FFFF00000403FFFF0000FFFF0F8A
:10204300F4010005C4040320000100030B00000099
:10205300000000000003010F01007C170200F216CC
:102063000300F8160400FE160500041706001017F7
:102073001100281714002E1715002217FFFF000068
:1020830003EAF5E5D5D5C5B5A5959585857575653A
:10209300655555454535352525151505DE0F0E10B6
:1020A300E40FEA0F0810FC0FF60F14101A1020109B
:1020B3002C10F00FD80FD20F0AAA0D02740D05864B
:1020C3000D077A0D0C560D0D680DFF000000160F5D
:1020D30000000B150B020002220F32000006C8108D
:1020E300DA10E010A80FE610A20FAE0F2811461168
:1020F3004C112E113A1134110C0E020B040B0A076A
:1021030008000F303016181920231A1C1E30000146
:1021130019161816161523030000034948424D18D3
:102123001725050200383C3E363B3B352B432C300C
:102133003017181921301B1D1F301C11EC10F21021
:10214300FE10F8100210261040113210381002044D
:102153000201010101090200000000000000BE04A9
:102163000A0E00E80304001500280008040C050308
:102173000908FF1E1E0A040F100C74F71203F5E979
:102183009003B0F0900365E4F0121C029003B5E4F1
:10219300F0A3F09003B1F0A3F0120EE2121C08902A
:1021A3000334E4F0A3F090217A93FA7902121C68C5
:1021B300024E1374F21203F5EAFEEBFF54806069DA
:1021C3009003B0E0F91214348A088B09EA450960D8
:1021D3004F7C0080010CEC75F003A4F8A9F074BBEC
:1021E30028F582742039F583E493F4602CE493F8A2
:1021F3008508828B83E06870DCAA08EC75F003A481
:10220300F874BC28F582742039F583E493C0E07434
:102213000193F583D082121E05AA08AB0912142874
:10222300EEFAEF6480FB022383EF5420601D120E4D
:10223300048A088B09EA4509600A120D68AA08ABEB
:1022430009121428EEFAEF642080DAEEA2E0501AA5
:1022530090036AE0640F700B7900120D32E960039A
:10226300122386EE6401FAEF80BB5420700302232D
:1022730051750C001238588B09EA450970107C021D
:102283007D007A207B009003B0E0F912157E7C007C
:1022930079047A007B00120DE08A088B0980188587
:1022A3000882850983A3A3A3A3A3A3A3A3A3740160
:1022B300F0850A08850B09E5084509606D7C0079FE
:1022C30004AA08AB09120DE08A0A8B0B750C01E511
:1022D300082404F8E5091235FC24FFF0A3E034FFD9
:1022E3001258EF70CC850882850983A3A3A3A3A307
:1022F300A3A3A3A3A3E0640170A585088285098332
:10230300A3A3A3A3A3A3E05404709485088285091F
:1023130083A3A3A3A3A3A3A3A3A37406F07AB7855C
:1023230008828509831224B28087120DB07C00795C
:10233300017A007B00120DE08B09EA45097009E57B
:102343000C70057A201247B2EE6420022269EF5422
:1023530002600B120EDCEEFAEF6402022228EF5445
:102363000460191249491248697901900363124BB9
:10237300CD120C78EEFAEF64040222287A007B0077
:102383000225B9900CFC122C50120D4A22C082C0B7
:102393008374EA12099D851882851983AA82AB8307
:1023A300794B121C3E7408120B6F7402F0740912FD
:1023B3000B6FAA82AB837950121C3E7413120B6FFE
:1023C300E4124D9C121C5C7416023D7674F71203E2
:1023D300F574E112099DEAFEEBFFEE4F60338518B9
:1023E30082851983AC82AD83120E287406120B6F9B
:1023F300E0601E7417120B6FE0FD7401120B6FE0A7
:10240300FCEEFAEFFB7900120BA0E9600479A480DB
:10241300027900024E0E74F61203F5EAFEEBFF8E0C
:10242300828F83A3A3A3A3A3A3E05440601B1252F0
:102433008B12258060067AFF7BFF801A8E828F8342
:10244300123A02FAA3E0FB8003120E4C74FE6A7088
:102453000374FF6B604112528B1247F6120EA0E910
:102463008E828F8360061224ABE480051224AB7442
:1024730001F07C387D0D8E828F83124BCD121C624E
:10248300E9F5087015EE4F60097901EEFAEFFB12DA
:102493000DBCA9080248277508CDAA088E828F8330
:1024A3001224B2E960DF80EAE0240D123ED122E07B
:1024B300240C123ED1E0F9120D442274F61203F5F6
:1024C300E9FEEAFF7A0F7B00121422EA4B60198AB5
:1024D300828B83740CF0EEA3A3F0EF8A828B83A329
:1024E300F01248527900802FEEF9120DE68A088B1C
:1024F30009A808A909E849601C88828983A3A3A3C2
:10250300A3A3A3A3A3A37406125516E0F9120CFC0C
:10251300EEF9120DC27910024827C082C0839003DE
:102523006AE0640F7014EA4B6010900365E064087E
:102533006005E064047003122540023DA0EAFCEB51
:10254300FD7A017B009003B0E0F912157822C08276
:10255300C0837900EA241DF582EB1239FF24FD6064
:102563000B14600824FD600424FD700109023DA0E2
:102573008E828F83A3A3A3A3A3A3A3A3A3122584C0
:1025830022123A47FB120EA0E9228E828F83A3A365
:10259300A3A3A3A3A3A3A31225846402228E828FE1
:1025A30083A3A3A3A3A3A3A3A3A3123D979003561B
:1025B300E068221209237F0602060D74F41203F564
:1025C30074FD12099D8A088B098A828B83A3A3E079
:1025D300F9120DE68A0A8B0BAE0AAF0BEE4F7003AE
:1025E3000226C5850882850983A3E064F1603085EE
:1025F3000882850983A3E064CD6024850882850968
:1026030083A3E0641A6018850882850983A3E064C4
:10261300E9600C850882850983A3E064E170087989
:1026230000120DBCE9706C850882850983A3E0C0A4
:10263300E07402120B6FD0E0123D7BEEF0A3EF12B9
:1026430030A6851882851983AA82AB837005120C84
:10265300608003120E887402120B6FE064E970331A
:102663008E828F831226D1750A01780A1208DF75CC
:102673000AE9780A1208DFE508240CF582E5091255
:102683002B98123083FCA3E0FD8A828B8312309D4A
:102693001209238E828F83A3A3A3A3A3A3A3A3A31C
:1026A300E0640270108E828F83A3A3A3A3A3A3A3CA
:1026B300A3A37406F0850882850983A3A3E0F91216
:1026C3000DC2120DB0900D00122389022C55E0F8B3
:1026D300A3E0F9E8FAE9FB2274F41203F5EAFEEB4E
:1026E300FF7508008E828F83A3A3A3A3A3E0604298
:1026F3007508088E828F83A3A3A3A3A3A3A3A31206
:102703003CAA8B0BEA450B601075082C8E828F83D5
:10271300A3A3A3A3A3E0D2E0F08E828F83A3A3A3FA
:10272300A3A3E05403640160030227C44308110216
:1027330027C4EE2418122C626033EE241A122C6282
:10274300700F1225A07003A3E069707575082280CD
:1027530070EE241BF582EF1227C9241AF582EF12BB
:1027630030AEEE24191252BF120CEA805412258D9A
:1027730070037508011225A07003A3E0697006E5D4
:1027830008D2E1F508E50860158E828F83A3A3E0E4
:102793007006E508D2E58004E508D2E6F5081225BF
:1027A3007364017006E508D2E0F5088E828F83A377
:1027B300A3E0600D1227D764016006E508C2E0F5C7
:1027C30008A908022C5A1239ED1227D022E0FCA3E3
:1027D300E0FDEE221239E7123A1FF9120E8EE922BA
:1027E300C082C08379018A828B83A3A3E0C394024E
:1027F3004001198A828B83A3A3A3A3E0C39402405D
:102803000279008A828B83A3A3A3A3A3A3A3A3A375
:10281300E064F87003A3E0F460458A828B83A3A38A
:10282300A3A3A3A3A3A3A3E064F97003A3E0F460A9
:102833002E8A828B83A3A3A3A3A3A3A3A3A3E0644E
:10284300FA7003A3E0F460178A828B83A3A3A3A384
:10285300A3A3A3A3A3E064FB7003A3E0F470027932
:10286300008A828B83A3A3A3E0F8900353E06860FC
:10287300027900023DA074F01203F574DE12099D83
:10288300EAFEEBFF8E828F83A3A3A3A3E0600E90E7
:102893000CFE12481E6006900CFE1223897403126C
:1028A3000B6FAC82AD838E828F83A3A3A31248A048
:1028B3001250D9E9600F7403120B6FAA82AB831213
:1028C3000D62E970087901121C14022B8DEE241B92
:1028D3001239F27410120B6F1248697409120B6FDC
:1028E300E06021741A120B6FE0FD7404120B6FE0A9
:1028F300FC8E828F83124BCB7901120BA0E960040B
:10290300790280C37403120B6FAA82AB83120D5C2E
:10291300E9F50A7409120B6FE0702A90034DE06029
:10292300247422550A6422601C7442550A6442705E
:10293300CF7420120B6F122BAB600A7420120B6F33
:10294300122BA470BBE9A2E650417403120B6FAAC9
:1029530082AB83120D50E970030228C87420120B56
:102963006F123A026403700F7420120B6FA31248A4
:1029730010A3E0640D60147403120B6FAA82AB837F
:10298300120EB2E964017003022B8DEE242C122B7C
:1029930095122EB97003A3E069701C7508007808BE
:1029A3001208DF78081208DFEE242E1252BF122B12
:1029B300B112309D1209237409120B6FE0700302E8
:1029C3002A6A122BB1124BCD120F068A088B09EA21
:1029D30045097003022B077404120B6FE0F88E8213
:1029E3008F83A3A3E028F8A3E03400F9E8240D12B1
:1029F3002B9C8A828B83A3A3A3E068601CE88A8252
:102A03008B83A3A3A3F0908731120B4C8508828597
:102A13000983A3A3A3A3120B587904E9120B6F1222
:102A230050B62AF8A3E034008882F583A3AA82ABC8
:102A3300831214108A0C8B0D8C0E8D0F85088285E2
:102A43000983A3A3A3A3780C1208774003022B8D59
:102A5300908759780C120A2C850882850983A3A3D1
:102A6300A3A3780C120B30900365E064046008E0C4
:102A730064096003022B8DE50AA2E54003022B459E
:102A8300EE242E122C62851882851983F0EE242FF2
:102A9300122C62C0E07401120B6FD0E0F0EE243010
:102AA300122C62C0E07402120B6FD0E0F0741412A7
:102AB3000B6FE064017027740E120B6F1239F8EE7E
:102AC3002412122C62687003A3E0697011740C1253
:102AD3000B6F12259A70077414120B6FE4F0EE2437
:102AE30024122B9512070E7404120B6FAC82AD8364
:102AF3007407120B6FAA82AB83120C66740412095B
:102B030023022B8D9003AAE064016003022A6A74F6
:102B130020120B6F122BAB7009E50AA2E6500302D9
:102B23002A6A7410120B6FE0F47003A3E0F4605A86
:102B3300EEFCEFFD7403120B6FAA82AB83120D6ED2
:102B43008048A2E650447420120B6F124BDC701ABB
:102B5300741A120B6FE0640270307403120B6FAAC5
:102B630082AB837900120E7C80207420120B6F12CB
:102B73002BA47016741A120B6FE06404700C7403A8
:102B8300120B6FAA82AB83120E767422024F88EE69
:102B9300240BF582EF1239ED22F582E9124882F80F
:102BA3002212529DE0640722123A1F640622EE2489
:102BB3002A1239EA1227D024121239EA2274F412A3
:102BC30003F5EAFEEBFF8C088D099005DEE0600F4C
:102BD3001225A07003A3E0697005120CD8804F7909
:102BE30000124BC0120D088A828B83E582458360F5
:102BF30035A3A3A3A3A3A3E05418602AE508241BC9
:102C0300F582E509122B98120712123296122B98AD
:102C1300120712EE24181252BF122C33120D1A741B
:102C23000412092380087900122C33120CDE80274A
:102C33008E828F83A3A3A3A3A3A3A3A3A31227D0AB
:102C4300240BF582EF122C4C223400F583123A4701
:102C5300FB2274031209237F0402060DEE2417F5E9
:102C630082EF1248822274F71203F574F712099D5A
:102C7300EAFEEBFF900365E06403600DE06401602E
:102C830008E064096003022D338E828F83A3E07012
:102C93007E7C007D007A027B00121C0EEE2402FA79
:102CA300EF1236031239F89003561248697953121A
:102CB3001C447900122D38E0640960031230CB857F
:102CC3001882851983740112483F9003657404F0D8
:102CD3007401120B6FAA82AB83794A121C3E7401F2
:102CE300120B6FAC82AD837A5B7B03121C2C9003B7
:102CF300561250CF7A031230D5900350E0A2E3501E
:102D030004D2F08002C2F012482C122386801E8E59
:102D1300828F83A3AE82AF83FC7D007A037B101284
:102D23001C0E8E828F83E0F9122D38E4F0120D9879
:102D33007409024E10900363122C50120C78900306
:102D43006522C082C08390033412481E701F900313
:102D530065E014600924FC600A14600C800F900382
:102D63003C8032900338802D90033A8028E84960F4
:102D73000890033512307D700C8A828B83A3E0F9AF
:102D8300120C6C801B9003351233327005120ED077
:102D9300800E9003D212481E6006124810121E05C0
:102DA300023DA074F41203F574FB12099D8A088B8B
:102DB300097A0F7B001214228A0A8B0BAE0AAF0B1F
:102DC300EE4F7003022EAD8E828F83124D9A79508F
:102DD300121C3E850882850983A3E06003022E95B9
:102DE300900363E0F47003A3E0F46034900363E0C2
:102DF30064FE7003A3E0F4602785188285198312AB
:102E03002EB97003A3E0696017850882850983A33F
:102E130074EA1230B37A637B037950121C448072D4
:102E230085188285198312527E1248697A567B036C
:102E33007953121C3E90035612489A1248697A59E4
:102E43007B03794B121C3E7A587B0379E1121C3EBB
:102E530090036AE0C3940F5021900358E0C0E074DC
:102E630002120B6FD0E0F07404120B6F7401F004C4
:102E7300120B6FAA82AB83121C56750A00780A12D2
:102E830008DF780A1208DF900DA2E0F912309412DD
:102E93000923850882850983122EB2A3F090036566
:102EA3007403F0EEFAEFFB1248527405022C57A399
:102EB300E08E828F8322125282E06822123ED82251
:102EC30074F51203F574D812099D8A088B098A8256
:102ED3008B83A3A3A3123A247415120B6FAC82AD98
:102EE300838A828B83A3A3A3A3A3A3A3A312308365
:102EF300FAA3E0FB120D9E7415120B6FE0706B8545
:102F03000882850983A3A3A3A3A3A3A3A3E0C394D4
:102F13000B40578E828F83A3A3A3A3A3A3A3A3E0F2
:102F230064027046EE240B122C62F4703D9003652C
:102F3300E06402603AE06406603590033412481E90
:102F4300600512307D604F900365E064086005E022
:102F5300640470167417120B6FE0F9741C120B6F74
:102F6300AC82AD83124BC0120DA4742802579C90FF
:102F7300033412481E701F75080078081208DF78A2
:102F8300081208DFEE2410122B951252D71236EBDB
:102F930012309D1209238E828F83124B3C123615F9
:102FA3001239F87402120B6F124869EE240D122CB9
:102FB30062C0E07404120B6FD0E01230A6F508A3D0
:102FC300E0F509740F7808120B217405120B6FE5F5
:102FD30008F07419120B6FE0C0E07406120B6FD087
:102FE300E0F0741B120B6FE0C0E07407120B6FD09C
:102FF300E0F07416120B6FE0C0E07409120B6FD08F
:10300300E0F07417120B6FE0C0E07408120B6FD07E
:10301300E0F0EE2410122C62C0E0740A120B6FD0A1
:10302300E0F0741A120B6FE0C0E0740B120B6FD058
:10303300E0F07427120B6FE0C0E0740C120B6FD03A
:10304300E0F0741C120B6FA982AA8389088A0975A0
:103053000A0078081208D77C087D007410120B6FE1
:10306300AA82AB831243CD12092385188285198363
:10307300AA82AB83120C72022F6D123338640122C1
:10308300E0F98A828B83A3A3A3A3A3A3A3A3A3E0AF
:10309300229003631250D3900359122C50120E5EE8
:1030A300740222F0EE240B12487F22124882FA2285
:1030B300F07A567B0379531230BE22121C447A599C
:1030C3007B03794B121C4422900363122C50120F82
:1030D30000227B00121C0E9003591250D37A047BFA
:1030E30000121C0E22F01252E22274F21203F57443
:1030F300F812099DEAFEEBFF8C0A8D0B890C8518EB
:1031030082851983AC82AD837583877582037408C6
:10311300120837F50DEEFCEFFD851882851983AA99
:1031230082AB83124A9D7003750D019003B1803BFE
:10313300EEFCEFFDE508240BFAE5093400124A9C86
:10314300601E850882850983A3A3E0650C70118541
:103153000882850983E0650A7004A3E0650B603883
:10316300E5082414F582E509122B9812360DE508BB
:1031730045096024E50DA2E040B6850882850983F0
:10318300E0650A7004A3E0650B70D58508828509A4
:1031930083A3A3E0650C70C8AA08AB0974080225D1
:1031A300B6C082C0839003B1023D9D74F71203F54C
:1031B3009003B1123A478012EA2414F582EB122BE2
:1031C30098123A241214C4EEFAEFFBEA4B70E9901A
:1031D30003B1E4F0A3F0024E137F0702060D74F16E
:1031E3001203F5EAFEEBFF890A8C088D098E828FA4
:1031F30083E08C828D83123CB4AE82AF83E01244B1
:103203008D1243FEC412448D12329FE054038C820C
:103213008D831243FCA2E2E4338C828D831243FB41
:10322300131313541F12448D1243FAA2E7E4338C91
:10323300828D83A3A3A3A312329F8E0C8F0D750ED1
:1032430000780C1208D77C087D00E508240712508B
:10325300421209231250AD8E0C8F0D780C1208D731
:103263007C037D00E508240F125042120923E50A6E
:10327300C3940F40148E828F83A3A3A3E0C0E012F4
:103283003296122B98D0E0800612329612550AF02D
:103293000231DCE5082412F582E50922A3A3123CDE
:1032A300B80EAF832274F41203F574F912099DEA80
:1032B300FEEBFF890890033412481E600E1233326E
:1032C3007009EEFAEFFB120ECA805F900363E06EA3
:1032D3007003A3E06F70537401650860097A777B0C
:1032E30003124A9D70447A007B0212385C8B0BEA0E
:1032F300450B7036900366120B4C85188285198333
:10330300120B5890036CE0C0E07404120B6FD0E012
:10331300F07405120B6F7401F07406120B6F124DEB
:103323009A120C3CE9609B120C427407022C571250
:10333300333864022212529EA3A3A3A3A3A3E022C1
:1033430074F51203F58A088B098A828B83A3AE82F4
:10335300AF83E0F9120C908E828F83E064EB600CF4
:10336300850882850983A3E064E170098508828565
:103373000983A3E4F0122386750A01780A1208DF91
:10338300850882850983A3E0F50878081208DF79A8
:1033930000123094120923120DB002579FEAF0A3D2
:1033A300EBF0023DA074F61203F59003B4E0701B3A
:1033B3007C0079017A007B00120DE0EA4B600C8AF5
:1033C300828B8312481E6003120D3E024827C0827F
:1033D300C083123844401079FF120DDAE9F89021C6
:1033E3007CE493C3985004790180027900023DA0E4
:1033F30074F01203F58A088B09890B750C008A8215
:103403008B83A3A3A3A3A3A3A3A3E0F9120DE68A2B
:103413000E8B0FAE0EAF0F750A01EE4F6003023431
:10342300D1850882850983A3A3A3A3A3A31250CFA5
:10343300850882850983A3A3A3A3A3A3A31241CDD4
:10344300124BCD120DCE8A0C8B0DAE0CAF0DEE4F81
:1034530070030235F48E828F83A3A3A3A3E4F0A3A6
:10346300F0E508240B123600E0C0E0122B92D0E006
:10347300F0120EA6EE240CF582EF1247F2E50824B3
:103483000EF582E5091239F5EE240EF582EF1248A6
:1034930066750C01EE2406F8EF1235FC547FF0A399
:1034A300E054FC125334E054046003023557900D8A
:1034B300041241BE74077808120A9E8E828F83A37A
:1034C300A3A3A3A3A3E04508F0A3E04509F08E82DC
:1034D3008F83A3A3A3A312360B74077808120B21BF
:1034E300E5085407F508E50B607A8E828F83A3A362
:1034F300A3A3A3A3A3A3A374021243FF240D123E09
:10350300CDE0A2E2500B90035112489AA3A31248B4
:1035130069E50870030235C9EE2406F8EF3400F9B3
:10352300E8FAE9FB8A828B83E0547FFCA3E054FC36
:10353300FDE50824FFF508E434FFF509740778086E
:10354300120A9EEC4508F8ED4509F98A828B83122D
:10355300486980728E828F83A3A3A3A3A3A3E044AD
:10356300800234D0E5087005750A0080598E828F79
:1035730083A3A3A3A3A3A3E05420601212141CEA01
:10358300547F245F8E828F83A3A3A3A380238E8281
:103593008F83A3A3A3A3A3A3E05410600A12141C54
:1035A300EA540F240A80DD8E828F83A3A3A3A3741E
:1035B30001F0A3E412361574041238538B09EA455B
:1035C3000970031247E5E50CA2E050288E828F8331
:1035D300A3A3A3A3124E00F9EEFAEFFB120DD4E955
:1035E300601212481460031239DDEEFAEFFB121475
:1035F300C4750A00A90A024F8B12495D22FAE50934
:103603003400FB8A828B8322A3A3E0F508A3E0F5B1
:1036130009221236192212505EA3A3A3A3A3227474
:10362300F41203F574F712099D7E00120DE6EA4BBE
:1036330070030236E48A828B83A3A3A3A3A3A3A369
:10364300A3A3E0640660030236E48A828B83A3A308
:10365300A3A3A3A3A3E0FF8A828B83123EE0E0C06F
:10366300E07408120B6FD0E0123A18124AA3124802
:1036730069120DF8EF540860668518828519831264
:1036830050CF7A007B00120DC88B0BEA450B704FAD
:10369300900363123B08121C6E7C007D007A007B52
:1036A3000080288E828F83123A02F47003A3E0F421
:1036B300602D9003631236EB124BCD121962E9644D
:1036C3001A601C7C007D00EEFAEFFB120DC88A0A1B
:1036D3008B0BAE0AAF0BEE4F70C97900121C747ED0
:1036E30001EEF97409022C571236EF22E0FCA3E035
:1036F300FD8E828F8322C082C083EA4B70059003C4
:10370300B580068A828B83A3A312390860258A8237
:103713008B83A3A3A3A3A3A3A3E0540860E5EC4D69
:1037230060158A828B83123A026C7003A3E06D707A
:10373300D280047A007B00023DA074F21203F5EA02
:10374300FEEBFF890A8C088D097A107B001214BEE8
:10375300EA4B603F8A828B83A3A3A3A3A3A3A3A360
:10376300A3E4123A06A3E50A1252A4A31237A08ACD
:10377300828B83A3A3A3A3E4F0A3123A12A3F012B0
:103783005138EA240CF582EB123CA4123799A3A317
:10379300F0A3F00225B9A3F08A828B8322A3A3E5C9
:1037A30008F0A3E509F02274F41203F5EAFEEBFF37
:1037B30089088C0A8D0BEE4F6055740165087014EF
:1037C3007901120DDAE9F8902174E493C398500F4C
:1037D3007911806A74046508702F12384440F18EA1
:1037E300828F83A3A3A3A3A3A3A3A3A3E508123C4C
:1037F300B4A31258298E828F83A3A3E4F0A3F0907D
:1038030003B512481E6021800D7402650860D079EB
:10381300C1802BE0F8A3124893A3A312390888822E
:103823008983A3A370ED80039003B5EEF0A3EF1299
:1038330038538B0BEA450B70031247E57900022CD2
:103843005A7904120DDAE9F8902171E493C39822AE
:10385300F0123858227A207B009003B0E0F9121559
:103863008A22C082C083E9F879009003B5801D8A5B
:10387300828B83A3A3A3A3A3A3A3A3A3E06860054D
:1038830074FF687001098A828B83A3A312390870BD
:10389300DE023DA074F71203F5EA4B70059003B501
:1038A30080068A828B83A3A312390860248A828BC1
:1038B30083A3A3A3A3A3A3A3A3A3E06970E4EC60DE
:1038C300148A828B83E0240D1250C0A2E240D3807D
:1038D300047A007B00024E13C082C0839003B5803C
:1038E300068A828B83A3A312390860128A828B8390
:1038F300A3A3A3A3A3A3A3A3E06970E580047A0011
:103903007B00023DA0122C50EA4B2274F21203F505
:103913008A0A8B0B8C0C8D0D750800750900EA451E
:103923000B602E9003B580068E828F83A3A312397A
:103933005B601EAC0CAD0DEEFAEFFB850A82850BC6
:1039430083121E05E9640170DFEEF8EFF988088938
:1039530009AA08AB090225B9E0FEA3E0FFEE4F2256
:1039630074F71203F59003B51239F87C007D0080DB
:103973000DE8FCE9FD88828983A3A31239F8E8499D
:103983006030EA687002EB6970E79003B5124BCDC3
:10399300E86A7002E96B88828983A3A370081239ED
:1039A300F89003B580091239F88C828D83A3A31292
:1039B3004869024E1374F71203F5EAFEEBFFEE4F6C
:1039C3006015120DF2123A2A12481460031239DDFF
:1039D300EEFAEFFB1214C4024E13EE240C1239EA72
:1039E300123A3F22EE241DF582EF3400F58322F5CF
:1039F30082EF1239ED123D9722F582EF1239ED1263
:103A03003A1F22123A0A221252ACA3A3A3A32212F0
:103A13003A0AA3A32212379A123A1F22125297E0AC
:103A230022E0FEA3E0FF228E828F83E0241C123E5D
:103A3300D1123A3F8E828F83123A3F22123A47FBCA
:103A43001214C422E0FAA3E022C082C083EAFCEB92
:103A5300FDEC4D700479058044EC24FBF582ED34D4
:103A6300FF12481C7007123AA3E0F46005121428F1
:103A730080E39003B0E0C0E0123AA3D0E0F09021DD
:103A830078E493F97AB77B03121452E96401700B5B
:103A93007A007B201247E9790080027904023DA075
:103AA300EC24FFF582ED34FFF5832274F41203F561
:103AB300A2AFE433F508C2AF9003B712395B6038A5
:103AC300EE24FBF582EF34FF12481C7A007B209032
:103AD30003B060051247EC8005E0F912145EE4F5CB
:103AE3000AF50B780A1208DBEEFCEFFD7AB77B03CD
:103AF30012144C7402120923E508A2E092AFEEFA05
:103B0300EFFB022C5A1250D3851882851983AA829F
:103B1300AB832274F21203F574FC12099DEAFEEBE7
:103B2300FF750AFE750BFF120DB6E96005791102E8
:103B33003C99EE2415122C626037900D18E0C433C3
:103B430054E0F8E0333354FC48C0E0EE2415122B64
:103B530095D0E0123CB4123CAA8B09EA45096011E6
:103B6300750AFFEE240F122C624404124877D2E048
:103B7300F08E828F8312257E6006EE2412123CA102
:103B8300EE2413122C627010902177E493C0E0EEC0
:103B93002413122B95D0E0F08E828F83E0A2E7509E
:103BA300045403801CEE2414122C627015900342FB
:103BB300E0C0E0EE2414122B95D0E0F0900342E035
:103BC30004F0EE2411122C62640170169005D5E006
:103BD300600D90034DE0700A8E828F83E0700312B4
:103BE3003C9E8E828F83E064017013EE240B1239A6
:103BF300FC64027009EE240F122C624440F0851815
:103C030082851983AC82AD83EEFAEFFB120E1C8A18
:103C1300088B0974FE650A700374FFF470098E82C1
:103C23008F83A3A312504EEA450960668E828F8369
:103C3300E0C0E07401120B6FD0E0F07402120B6F5E
:103C430012513C7401120B6F85820C85830D780C25
:103C53001208DBEE240F122B95120712EE240E121C
:103C63002C62F50C780C1208DF90035612071274BD
:103C730007120B6FE0F9AC0AAD0B120E16740712A4
:103C83000923E9FE74106E700BAA08AB091214C461
:103C930080027E10EEF974040225B6EE2411F5823B
:103CA300EF1239EDE4F022A3122C5079FF121D34E8
:103CB30022123CB822F08E828F83A322C082C0835B
:103CC30074DE12099D8A828B83A3A3A3A31239F8FE
:103CD300740E120B6FE8F0A3E9123D8E740C120BF5
:103CE3006F123D87240DF582EB122C65C0E0741A28
:103CF300120B6FD0E0F0124F9BEB1239F5742012C8
:103D03000B6F123D872415F582EB122C65C0E0740E
:103D130008120B6FD0E0F0EA241CF582EB1239F5A0
:103D23007412120B6F123D872411F582EB122C656E
:103D3300C0E07409120B6FD0E0123D7B74FFF07486
:103D430001120B6F74FFF07402120B6F74FFF0908B
:103D5300873112070E7404120B6FAC82AD837407A4
:103D6300120B6FAA82AB83120C66740412092379B7
:103D73000074221209238025123D7F22F0851882C8
:103D830085198322E8F0A3E9F0EA2212379AA312F5
:103D93003D9622A3E0F8A3E0F922124BCDD083D0C5
:103DA300820208BB74EC1203F574EE12099D8A12A9
:103DB3008B13ECFEEDFF89097426120B6F12504E24
:103DC3007428120B6FE0F5107429120B6F123EC2A8
:103DD300742B120B6FE0F50EA3E0F50F7508107A44
:103DE3001E7B001214BE7402120B6F1247F674028C
:103DF300120B6F12481E7003023EBB851882851991
:103E030083AA82AB8379501246D1124BCD7402122E
:103E13000B6F123EE0A31247F67410120B6F125889
:103E23002B7402120B6FE0240B123ECD7402F012BE
:103E33000B6F123EE07402F0120B6F12528F12518D
:103E43003C7402120B6F124BE2E509F07402120B81
:103E53006FE0240C123ECDE510F07402120B6F12CA
:103E63003ECAE512F0A3E513F07408120B6FE50CDC
:103E7300F0A3E50DF0740A120B6FE510F0850E82C6
:103E8300850F83C082C083740D120B6FAC82AD8328
:103E9300D083D0827403120837F97402120B6FAA0D
:103EA30082AB83120DBCE9640170057508008008BC
:103EB3007402120B6F1239E3A9087412025065E001
:103EC300F50CA3E0F50D22E0241C123ED122F8A349
:103ED300E0123ED8223400F98882898322124BD51E
:103EE300A3A3A3A3A32274EE1203F5EAFEEBFF8CB4
:103EF300088D098E828F83A374081248B2E060088C
:103F03008E828F83A37410F0122C5F60098E828FD0
:103F130083A3E02408F0EE2415122C6260088E823D
:103F23008F83A3E004F08E828F83A3A3A3A3A3A311
:103F3300E060198E828F83A3A3A3A3A3A3A3E0C3EB
:103F4300332402F88E828F83A3E028F0EE2411122B
:103F53002C626005750B0E8003750B008E828F83B8
:103F6300A3C082C083EE240D122C62D083D082F8CA
:103F7300E028250B8C828D83F0EE2411122C6260D5
:103F8300051243DD28F0850882850983E0C3947513
:103F930040097508007509000240CBE0FA7B001266
:103FA30051EA70030240CBEEFAEFFB120E22EA85D0
:103FB30008828509831247F7EE2402F8EF122EBF19
:103FC3001241C5124107F0EE24040808EF122EBF78
:103FD300124607A3124107A3A3F0EE24131240EDE8
:103FE300F0EE24141240EDA3F0750A08EE24161225
:103FF3002C626010EE24181250CCE50824081252EB
:10400300CD750A10122C5F6016EE241A1250CC855F
:104013000A0CE508250C1252CD7408250AF50A8E00
:10402300828F83A3A3A3A3A3A3E06059EE2407F580
:1040330010EF3400F511851082F583E0C0E01240E3
:10404300D4122B98D0E01240F7E0C0E01240D41213
:104053002B98D0E01240F7A31240E01208D7851046
:1040630082851183E0C333FCE433FD850A0CE50844
:10407300250C125042120923851082851183E0C357
:1040830033250AF50AEE2415122C62600BC0E012E8
:1040930040D4122B98D0E0F0122B921240E0120879
:1040A300D7EE240D122C62FC7D00850B0A8E828FC5
:1040B30083A3E0F8E50828F8E5093400F9E8250AC0
:1040C300FAE9125045120923AA08AB097F0A02062E
:1040D3000D850A0CE508250CF582E50922E0F50CAF
:1040E300A3E0F50D750E00780C221239EA12411186
:1040F300A3A3A322F0050A8E828F83A3A3A3A3A362
:10410300A3A3A322A3A3125338A31241112212463D
:104113000BA3A32274F61203F58A828B83E0FC902F
:1041230003531241BE74027808120A9EEC4508FC40
:10413300AD09EA24121241B874067808120A9EECFB
:104143004508FCED4509FDEA2415F582EB122C65C3
:104153006004780180027800E4C8F9ED49FDEA249F
:1041630011F582EB122C65F5088809740978081299
:104173000A9EED4509FDEA24161241B8740B78082E
:10418300120A9EED4509FDEA24171241B8740C7812
:1041930008120A9EED4509FD8A828B83A3A3A3A37C
:1041A300A3A31241BE740A7808120A9EECFAED45E5
:1041B30009FB024827F582EB1239EDE0F508750992
:1041C3000022E085088285098322A3E0F98508821D
:1041D3008509832274EE1203F58A0A8B0BECFEED3C
:1041E300FF750F01E9C39408500579000243CA8E95
:1041F300828F83E9F0124630E96003750F0012469F
:10420300148E828F8312465EEE124F9CEF1246533A
:10421300C0E0EE2411122B95D0E012464BC0E0EE25
:104223002412122B95D0E0123CB47408125056A3FA
:10423300A3A3E060151245FCEE2413F582EF1248A8
:10424300668E828F83A3E02408F08E828F83A3A3DC
:10425300A3A3A3A3A3A3E060218E828F83A385825C
:104263000885830912463FEE2415F582EF1248664E
:10427300850882850983E02408F08E828F83A3A3B7
:10428300A3A3A3E0601A8E828F83A385820885830C
:10429300091246238E828F83A3A3A3A3A31243EF02
:1042A300EE2419123CA1EE241B123CA1A31248AA2E
:1042B300E0700302435EEE2419F8EF3400F98E82B6
:1042C3008F83A3858208858309E0FAE50A2AF582AC
:1042D300E50B122C65888289831243EFFAE50A2ADB
:1042E300F582E50B122C65C0E0EE241A122B95D053
:1042F300E01243EF88828983E06059F8902170E4EB
:1043030093C398500575110C8008EE2419122C6282
:10431300F5118E828F83A3E0F8E50A28F50CE50BEF
:104323001243D31208D7E511C333FCE433FD7AB546
:104333007B0B1243CD120923EE241B122B9574B56C
:10434300F0A3740BF0E511C333F885088285098364
:10435300E0288006EE2418125507F08E828F83A37F
:10436300E0F88E828F83E0C39850030241EDA3E00F
:10437300FA8A08E50A2508F8E50B3400F9EE241D4E
:10438300F582EF1249721243FFC39AC0E0EE24177D
:10439300122B95D0E012486F602BEE2417F8EF3400
:1043A30000F9880889098882F583E024F2124953C9
:1043B300240EFAA3E03400FB888289831247F612A5
:1043C30043DDC398F0A90F0240CF1213F874032200
:1043D3003400F50D750E00780C2290034EE0F912AF
:1043E3000BA6E9F8850882850983E022F085088217
:1043F300850983E004F022A3A3A3A3A3F08E828FF5
:1044030083E02274F41203F58A088B09EA124494B8
:10441300F0EA1313543F12448DA3A3A3F0EAC41389
:1044230013124494A3A3F0EB12448612449E74091E
:10443300780A120B2112448412449D740A780A12DA
:104443000B21E50A5401C0E0EC2418F582ED122B90
:1044530098D0E01244A3740B780A120B21124484FF
:10446300A312449D740C780A120B21124484A3A353
:10447300A3A3A3A3A3A3F0740D7808120B2102270F
:10448300C4E50A54018C828D8322540F8C828D8360
:104493002254038C828D83A3A322A3A3A3A3A3A348
:1044A300F08A0A8B0B22C082C08379008A828B83B5
:1044B300A3A3A3A3A3A3E090034D600FE070228AFC
:1044C300828B83A3A3E07019098016E060138A82AC
:1044D3008B83124BC4900356E06A7003A3E06B70A6
:1044E300E7023DA074F01203F58A0A8B0B890C8C4A
:1044F300088D0912463012461485088285098312F5
:10450300465EE508124F9CE509124653C0E0E508F4
:104513002411F582E509122B98D0E012464BC0E036
:10452300123296122B98D0E012497A7408124993EA
:1045330060111245FCE508241312496E12497AE012
:104543002408F0850882850983A3A3A3A3A3A3A3B7
:10455300A3E06017850882850983A312463BE5081B
:10456300241512496E1243FF2408F0850882850939
:1045730083A3A3A3A3A3E06019850882850983A36A
:10458300AE82AF831246238508828509831243FADC
:1045930004F0AA08AB09120E34E9F50D705685082C
:1045A30082850983A3A3A3A3A3A31246077014E0E0
:1045B300FA8A0EE50A250EF8E50B12485BE50CC3F3
:1045C3009A802112463BE8240EF8E912485B9003D7
:1045D3004EE0F9120BA68E828F83E0F8E50CC398A8
:1045E30024F2C399C0E0E5082417F582E509122BEC
:1045F30098D0E0F0A90D024F8BE50A2408F8E50BEB
:104603003400F92212460B22E0850882850983A330
:1046130022850A82850B83A3A3124674E0F9EA225A
:10462300E0F8E50A28F582E50B124882228A828B9C
:1046330083124F90120E2E22AE82AF83E0F8E50A6A
:1046430028F8E50B3400F922124687A3A3A3E0223E
:104653001239EDE8124680A3A3E022A3A3A3A3A3E8
:10466300A3A3A3A3124680124674A3A3E0F9EAF816
:1046730022E0FA850A82850B83A3A3A322F0A3E990
:1046830012468722F0850A82850B83A3A3A3A32264
:10469300C082C0837AC57B0379E2121C3E7AC57B54
:1046A30003023DA0C082C083900356023D9DC08299
:1046B300C08374FE12099D851882851983AA82AB73
:1046C30083794B1246D1124BCD7402023D76121CF4
:1046D3003E85188285198322C082C083794A121CC1
:1046E3003E023DA074F61203F59003CDE0FE04F004
:1046F300EEF9120DE68B09EA450970EDEE60EAF971
:1047030002482774F01203F5EAFEEBFF8C088D09CB
:10471300890A7410120B6FE0F50B7411120B6FE022
:10472300F50C120F06EA4B7013E50C7042A90AACA4
:1047330008AD09EEFAEFFB120F1E806EE50A602149
:10474300EA2402F582EB122C65850A082508F8E4B1
:10475300340013E813F070098A828B83A3A37401D6
:10476300F0E50C6045E50B70068A828B83E4F074F8
:1047730001650C7035E50B9003D47004E4F0802AD6
:10478300E004F0900D05E0F89003D4E0C398401ADC
:10479300E4F0900359E06E7003A3E06F700CEEFA3F
:1047A300EFFB7901120C8A1247B0024F8B7A017B1F
:1047B300009003B0E0F912158422C082C083740113
:1047C3006A7001EB70077A011247E78012900CFCC4
:1047D3001247F6EA4B600512254080031247B002E8
:1047E3003DA07A207B009003B0E0F91214582234E4
:1047F30000F583EAF0A3EBF022C082C083900CFEA5
:104803000233A0C082C083900D000233A012529ED7
:1048130022EE240CF582EF3400F583123D97E8492C
:10482300221209237F0202060DA2F0E433851882C7
:104833008519831248487952121C44221248487938
:1048430042121C4422F0AA82AB8322AA08AB09902D
:1048530003B0E0F912142E223400F9E508241DF503
:1048630082E5091239EDE8F0A3E9F02212505AA3C8
:10487300A3E022A3F0EE241512487F22F582EF3441
:1048830000F583E02212488C223400F583E0F8A37C
:10489300E0F98882898322E0F81248A022A3E0F994
:1048A3008E828F83A3A322F0EE24181239EA22F01A
:1048B300EE24161239EA2274F41203F5EAFEEBFF32
:1048C3007A007B041247B412494912486990036580
:1048D3007409F0120E408A088B09AC08AD09EE2466
:1048E30013122B95124BCD124A9D640170487A0F17
:1048F30012493C60418A828B837402124953FAA3A2
:10490300E0FB8A828B83A3E0FC8A828B83A3A3E0F0
:10491300FBEC850882850983A3A31247F788828964
:1049230083124BD11241C5124876FAA3E0FB794AB0
:10493300121C4412484E022C5A7B001214228A087D
:104943008B09EA450922900336123D97900D002208
:10495300F0EE241DF8EF12495D22123ED8E0221238
:104963004966223400F5837401F022F582E50912C9
:1049730039EDE8F0A3E92212497E2212498222F09E
:10498300850882850983A322124982A3A3A3A322B4
:1049930012498BA3A3E022124DA4120E9422EE24FB
:1049A30017F582EF124966120E40EE241A1239EA05
:1049B300EAF0A3EBF02274F41203F574F312099DE9
:1049C3008908EAFEEBFF7C0D7D007900851882855E
:1049D3001983AA82AB83121404EE241D122B9512A1
:1049E300528FA3E0F8741F58600A7901121C1479DE
:1049F30000024A94E8A2E55008740C120B6F74018C
:104A0300F0E8A2E75008740B120B6F7401F0E8A2F0
:104A1300E6740A5008120B6F7401F08008120B6FD2
:104A2300E064017005EE24138003EE24151250CCCC
:104A33007402120B6FAA82AB83121C2C122B9212DC
:104A43004AA2124869740A120B6FE06401703312B0
:104A53002573703B120E4C8A0A8B0BA80AA90BEE26
:104A6300240B122C62687003A3E0697022120E40BB
:104A7300EAFCEBFD7402120B6FAA82AB83124A9D10
:104A8300600D851882851983AA82AB83120C84A9D1
:104A930008740D022C57EEFAEFFB121C26E922E0F4
:104AA300124AA722F8A3E0F9851882851983227494
:104AB300F61203F574F312099D8A088B09ECFEEDD7
:104AC300FF7C0D7D007900851882851983AA82AB4E
:104AD30083125434A3A3A3A3A3A3A3A3A3124B3C62
:104AE300124B45F8A2E55008740B120B6F7401F0DA
:104AF300E8A2E75008740A120B6F7401F0E8A2E60B
:104B0300EE50042413800224151250CC7402120BAD
:104B13006F124B2EA3A3E0C0E0740C120B6FD0E016
:104B2300124D9C120C7E740D024824AA82AB831290
:104B33001C2C85088285098322E0124AA7E8F0A38A
:104B4300E922F01239E7125293A3E02274F7120319
:104B5300F574E112099DEAFEEBFF8E828F83124BFF
:104B6300D1A3A3A3E0A2E050518E828F831226D358
:104B73008A828B83A3A3A3A3A3A3E054FE124BE9CE
:104B83008A828B83124BE2E0F98A828B83E0241CB6
:104B9300FAA3E0123603124BCD120E3AE9701B74DE
:104BA3001D120B6F124BDC7011851882851983ACB3
:104BB30082AD83EEFAEFFB120E82024E0E8E828FCF
:104BC30083A3A3A3A3A3A3A3A3A3122C5022124B97
:104BD300D522125297A3A3A322123A1F640422E000
:104BE300241B123ED122123D7FAC82AD8322E9F811
:104BF3007900740468600A740A6860057403687055
:104C030001090208BB74F61203F58A828B837420B0
:104C1300F0A3A37401F0120C308A088B09AE08AF1D
:104C230009EE4F60108E828F837401F09003A3E02E
:104C330070031249A1EEFAEFFB024827C082C0833A
:104C43009003B97401F0E9A2E350037403F0E9A2FD
:104C5300E15004E0D2E2F0023DA074F61203F579CC
:104C6300007C008A088B097808120653F8FF079026
:104C73004C8E4C8E4C8E4C8E4C874C8B4C904C8473
:104C83004C0C80097C0480050C80F67C089003B9E9
:104C9300E05C6003098003EC60010902482774F6B5
:104CA3001203F58A828B83E07012A312481E600CF4
:104CB3008A828B83124BCC121D6480047A007B00A2
:104CC30002482774F51203F574F312099D8A088BC1
:104CD30009ECFEEDFF750A12EA4509700579000239
:104CE3004D95900356E065087004A3E065097014C0
:104CF300120E40EAFCEBFD124A997005750A018019
:104D030003750A00851882851983E4F004120B6F7A
:104D1300E508F0A3E509124D9C120BF4E960277432
:104D230003120B6FAA82AB83120BD6E964017016D0
:104D3300750A017403120B6FAC82AD83124A99603A
:104D430021750A00801C7412650A70169003A2E094
:104D53006402700EEEFCEFFDAA08AB09120C0CE91D
:104D630070DFEEFCEFFDAA08AB09120F0CE9F87433
:104D73000A687005750A01801774A0687012EEFC4A
:104D8300EFFDAA08AB09120F18AA08AB09120F2AE4
:104D9300A90A740D02579C7402124DA022124DA44D
:104DA30022123D7FAA82AB832274F71203F5EAFE37
:104DB300EBFF8E828F83A3A3A3A3A3A3A3A3E0608C
:104DC30015EE2415122B95122C40120EACE964013A
:104DD3007004790180258E828F83A3A3A3A3A3A349
:104DE300A3E06015EE2413122B95124E00FAA3E0F4
:104DF300FB120EACE9640160D9790080131236EF1F
:104E0300A3A3A3A3A3A3A3A3A3E022741F12092311
:104E13007F0102060D74F01203F574FD12099D8AD9
:104E2300088B09ECFEEDFF890B7413120B6FE0F591
:104E33000C750A017401120B6F74041252C7604897
:104E4300E50C601DEA2417F582EB12550A1252B5E0
:104E53008A828B83E0D2E7F0EA2414F582EB123CDA
:104E6300A4124F9BEB124888740312582DEE8882CC
:104E73008983A3A3F0EF88828983A3A312379912AE
:104E830037A0120C2AE9F50AA90A7403024F8874A1
:104E9300EC1203F574F512099D8A0A8B0B890C8CAD
:104EA3000E8D0F741F120B6FE0F50D7420120B6F34
:104EB300E0F510A3E0F5117E01EE120B6F740AF01A
:104EC300E97007E50DC333240AF012506D70030235
:104ED3004F6F1250827409F0A3E50CC43354E045BC
:104EE3000D125094E50C702D7C008023ECC333F835
:104EF300E433F9E51028F8E51139F988828983123A
:104F03004F7C88828983122EB2F0A30EAF830CEC00
:104F1300C3950D40D7E5082417F582E509124962C8
:104F2300120E40E508241AF582E5091247F27403CC
:104F3300120B6FAC82AD83AA0AAB0B120BDCE960D8
:104F430019E5082416F582E509124F76120B6FA8AE
:104F530082A983E50824181248628508828509839B
:104F6300125829AA08AB09120C2AE9FEEEF9740BB0
:104F7300025065124966740322E08E828F83F0A388
:104F8300AE82AF83221209237F0802060D123A472D
:104F9300F9EA2400E439FB22EA240BF5822274EEB9
:104FA3001203F58A0C8B0D890E8C088D097412126D
:104FB3000B6FE0F50F7413120B6F12504E900544F4
:104FC30012481E6077E50FC333F8E433F9E8240E83
:104FD300FAE93400FB1214228A108B11AE10AF11C0
:104FE300EE4F60588E828F8374D4F0A3A3E50CF048
:104FF300A3E50D125056E50EF0AC08AD09EE2405FD
:10500300FAEF1252D0EE240D122B95E50FF0850A1C
:1050130008850B09750A0078081208D7E50FC33312
:10502300FCE433FDEE240EFAEF125045120923EE91
:10503300FAEFFB90054412528F121E050240CFFA7D
:10504300E5093400FB1213F8740322E0F50AA3E028
:10505300F50B2212505A2212505E22123CB8A3A31F
:10506300A3221209237F0C02060D8518828519835A
:10507300AA82AB83120E948A088B09EA450922EAB5
:10508300240BF582EB124882FEA3E0FF8E828F830E
:1050930022F0A3AE82AF83AC0EAD0FEEFAEFFB129C
:1050A30050A622121C2C1250AD22EE2408FEEF341F
:1050B30000FF22E0FA8E828F83A3A3E022FEA3E007
:1050C3003400FF8E828F83E0221239EA1250D322FA
:1050D300E0FCA3E0FD22122C50120E282274F612DB
:1050E30003F5EAFEEBFF9003BA801388828983E01D
:1050F3006E7003A3E06F603A88828983A3A312488A
:105103001E70E87A047B001214BE8A088B09A80873
:10511300A909E849601C8882898312513C9003BA2B
:10512300124BCD88828983A3A31247F69003BA1248
:1051330048690248278A828B83EEF0A3EFF022743A
:10514300F41203F57E009003BA80070E88828983E8
:10515300A3A312481E70F4EEC333FAE433FB1251D7
:10516300EA607E7F009003BA80248882898312508C
:10517300CFEFC333FAE433FBE5082AF582E5093BB5
:10518300F583ECF0A3EDF00F88828983A3A3124883
:105193001E70D79003AB1225AD7003A3E0697808A6
:1051A30070191208DBEEF50A780A1208DF7C777DA6
:1051B3000379009003AB1251F5801A1208DBEEF568
:1051C3000A780A1208DF7C777D0379009003AB121B
:1051D3004BCD120EBE7403120923AA08AB09121495
:1051E300C4120C42022C5A1214BE8A088B09EA45D7
:1051F3000922122C50120EC422C082C08380128A4C
:10520300828B83A3A31239F89003BA12486912144C
:10521300C49003BA12390870E6023DA074F6120373
:10522300F5900363123A249003CE12527E1248691A
:105233007ACE7B037950121C449003CE1227CCFA0A
:10524300EFFB120F249003CE123A24900546124826
:105253001E60257A067B00121422EA4B601A8A82AA
:105263008B8374D5F0A3A3E41252A4041252B59015
:10527300054612528F121E0502482712528222E05F
:10528300F8A3E0F9900363228E828F831252932254
:1052930012529722E0F812529D22A3E0F5838882EE
:1052A300221252A8221252AC22F08A828B83A3A329
:1052B300A3221252A8A3EEF0A3EFF022F582EF127D
:1052C3004882F92212499AEA4B22FAE5093400FB93
:1052D300121C2C221248A1A3A3A3A3A3A3A322902D
:1052E3002172E4932401F8E43400F97A027B00226A
:1052F30074F71203F57E0080041258E00E12540472
:1053030040F77E00EE12531F74FEF0A304125334D1
:10531300E4F00EEEC3940340EB024E1375F003A4C6
:10532300F8A9F074BC28F8740339F988828983A337
:105333002212533822F0888289832274F71203F5EC
:105343007F0080010F90216FE493F8EFC3985026FC
:10535300EF1254F06A7003A3E06B70E812588D6C7F
:105363007003A3E06D600A74FF6C700374FF6D70CB
:10537300D31253FB80047A007B00024E1374F6129F
:1053830003F57CFF7DFF7AFE7BFF120EE8EA4B708C
:10539300407508008036E50875F017A4F8A9F07485
:1053A3005028F582740A125502600C744F28F58256
:1053B300740A1255027013744128FE740A39FF8E61
:1053C300828F8312550FEEFAEFFB050812546A40E1
:1053D300C502482774F41203F58A088B09ECFEED25
:1053E300FF800B120EFAEEFCEFFDAA08AB09120EBA
:1053F300E8EA4B70EE022C5A744128FA740A39FB1E
:105403002290216FE493F8EEC3982274F71203F508
:10541300EAFEEBFFEE4F601012542E74FEF0A3046D
:1054230012583314F0A304F0024E137C177D007955
:10543300001214048E828F832274F71203F5EAFE9E
:10544300EBFF7508008018E50875F017A4F8A9F0BC
:105453001258987003A3E06F60031258E80508120E
:10546300546A40E3024E1390216FE493F8E508C3B6
:10547300982274F61203F5120EE88A088B09A8081D
:10548300A909E849600AE8240DFAE93400FB80041D
:105493007A007B0002482774F41203F58A0A8B0B07
:1054A300ECFEEDFF750800750900802EE50975F027
:1054B30017A4F8A9F01258D3601EE5091254F06539
:1054C3000A7004A3E0650B700375080AEEFCEFFD98
:1054D30012578F60034308A0050990216FE493F8E6
:1054E300E509C3985004E50860C20227C475F017A4
:1054F300A4F8A9F01254FB22744128F582740A39E6
:10550300F583E022F582EF1239EDE422122C5012DA
:105513000D2022125338A3A3A3A3A3A3A3A32274EE
:10552300F21203F58A088B09ECFEEDFF740E120BE1
:105533006F12504E750C007C007D01801012141CFC
:10554300E50CF5F0EA84ACF0750C007D0078007989
:105553000080031256CC12572840030255EEE8FA96
:10556300E9FBEA75F017A4FA85F00D75F017EBA4C3
:10557300250D1257047003A3E0F460D71256E265B9
:10558300087004A3E0650960CA1256E26E7003A3B3
:10559300E06F60BF1256E2650A7004A3E0650B601A
:1055A300B2E8FAE9FBEA75F017A4FA75F017EBA471
:1055B300250DFB744F2AF582740A1256C350947456
:1055C300016D050C608DE50CC39C4087E875F017F1
:1055D300A4F8AAF075F017E9A42AF9744128F58212
:1055E300740A39F583124BCD0256C07800790080D6
:1055F300031256CC12573540030256A7E8FAE9FBCB
:10560300EA75F012A4FA85F00D12571464FE7003C4
:10561300A3E0F460DC12570A65087004A3E065098F
:1056230060CF12570A6E7003A3E06F60C412570A6B
:10563300650A7004A3E0650B60B7E8FAE9FBEA7555
:10564300F012A4FA75F012EBA4250DFB74D02AF521
:105653008274081256C35099E8FAE9FBEA75F0120E
:10566300A4FA75F012EBA4250D1256D564016081DE
:10567300E0640270030255F474016D050C700302BB
:1056830055F4E50CC39C50030255F4E875F012A4DD
:10569300F8AAF075F012E9A42AF974C728F5827400
:1056A300080255E5E50C6011EC700E7401650C60A1
:1056B300030255407C0102554B7AFE7BFF0225B95C
:1056C3003BF583E014C3940622E8240108E934007F
:1056D300F922FB74CB2AF58274083BF583E022E8B8
:1056E300FAE9FBEA75F017A4FA75F017EBA4250D98
:1056F3001256F722FB74412AF582740A3BF583E0C4
:10570300221256F764FE22E8FAE9FBEA75F012A4C6
:10571300FA75F012EBA4250DFB74C72AF582740801
:105723003BF583E02290216FE493FAC3E89AE9946E
:10573300002290216AE493FA740193FBC3E89AE987
:105743009B2274F51203F58A088B09ECFEEDFF75B5
:105753000A008002050A90216FE493F8E50AC398D2
:105763005028EEFCEFFDE50A75F017A4F8A9F01236
:10577300578F60E0E50A75F017A4F8A9F074412883
:10578300F582740A39F5831237A28010744328FA1C
:10579300740A39FB121C26E9221209237F0302062D
:1057A3000D74F01203F58A088B098C0A8D0B890C92
:1057B300120EEE8A0E8B0FAE0EAF0FEE4F60551228
:1057C300542EE508F0A3E50912583312582BE50CC3
:1057D300600AEE240F122B95E50C8006EE240F12BF
:1057E3005823F09003D012481E601A9003AAE06475
:1057F300017008EE240E1255078010EE240E122BB2
:105803009574078006EE240E1258231230E8120214
:10581300A412581A024F8BEE240D1239EAE8F02233
:105823001239EA740122A3A3E50AF0A3E50BF022DF
:10583300123619A32274F51203F58A088B09ECFEBC
:10584300EDFF750A00800F1258987003A3E06F6094
:10585300031258E8050A90216FE493F8E50AC39808
:105863005025E50A75F017A4F8A9F012588D6508BC
:105873007004A3E0650970CF744B28F582740A396C
:10588300F58312513C80CD02579F744B28F58274E7
:105893000A12550222744B28F582740A1255026EBD
:1058A3002274F71203F5EAFEEBFF7508008019E591
:1058B300081254F06E7003A3E06F700A1258D3708D
:1058C30005E5081258E1050812546A40E2024E1336
:1058D300744328FA740A39FB120BD6E922EE75F0E9
:1058E30017A4F8A9F01253FB120EFA22125338121E
:1058F3003D97E84922C082C08374F812099D851838
:1059030082851983AC82AD837583867582FB7408A7
:10591300120837851882851983AC82AD83124A9D9C
:10592300640170047900800279017408023D76C035
:1059330082C0838A828B83E0D2E7F01216920263DD
:10594300C6C082C0837900125DFE12739FC082C0FD
:1059530083900330126FC1D083D082C3E09CA3E055
:105963009D500C12756EFAA3E0125975600109027D
:1059730063C6FBEA75F00BA4FAA8F075F00BEBA471
:1059830028FB900332E02AF8A3E03B8882F583E00A
:10599300540F2274F71203F58908125DFE125EA4F8
:1059A300ACF075F00BE9A42CF9900332E028FEA3C8
:1059B300E039FF7401650860067402650870208A87
:1059C300828B83125E90126A7474026508701B12D4
:1059D3005D4F125ED770138E828F83E4F0800BEAE3
:1059E3002403FCEB125E72125E7EEEFAEFFB120BE7
:1059F300AC0266F974F41203F512796279008E82AF
:105A03008F83E06076890A890B8065E50A75F00B60
:105A1300A4FAA8F075F00BE50B1259827046E50A5B
:105A230075F00BA4F8AAF075F00BE50B125EB68EB9
:105A3300828F83E0850882850983125F98850882B7
:105A4300850983A3126A74EE2403FCEF125E7B12B2
:105A5300659D127319AA08AB09120BAC7901900367
:105A630030126FDCE50A2401F50AE50B3400F50B6F
:105A7300125D57E50A9AE50B9B409002682D74F579
:105A83001203F5EAFEEBFF740B120B6F1265A2759E
:105A93000A01EC4D602BEC12797EED12739F126AB2
:105AA3006C7901120BB8E5084509606F850882859A
:105AB3000983A312796C7902AA08AB09120BB88087
:105AC3005AE5084509602B1273A3126C9612659E62
:105AD300125EC1700CEEFAEFFB120BBEE9F50A8001
:105AE300CBEE2403FA125DF970317903EEFAEFFB82
:105AF30080CA8E828F83A3E064FE7003A3E0F470F8
:105B03000BEE24030A0A0A125DF9700CEEFAEFFB9E
:105B1300120BBEE9F50A8003750A00A90A7F030286
:105B2300060D74F71203F59003301266FEEA4B601C
