:020000040000FA
:06000000020AA80202340E
:03002B000208F3D5
:0300330002070FB2
:030043000207A809
:0300530002016542
:03006B000206F595
:100083000201C90101FF01010503010F10FEFF3841
:1000930013381338133813F411EE113813252000D5
:1000A300000000E920000000000C0000000C00012B
:1000B30004FFFF0102007605000000E90564000269
:1000C3000200080000050207051E02051E020A0AB7
:1000D30003B80B02803E0102F1FF14102186700069
:1000E3007E4A4A4A4A4A7E0000000002FE01407FDF
:1000F30041417F41417F41417F40000000FC042496
:1001030024FCA5A6A4FC242424040080601F808072
:1001130042462A12122A2642C04000000000000074
:100123000000000000000000000000000036360060
:100133000000000000000000000000106002CC007E
:10014300003E2AAA2AAA2A3E0000000808FE01400F
:10015300424C407F407F4844424000965118000281
:100163000206C0E074F212044DA2AFE433FED2AF34
:10017300E5A7FFE5A1F5085F54106006121AE875BC
:10018300A1EFE5085F54086008121AEE75A1F78025
:100193002BEFA2E0C0D0E508A2E092F01209CF1540
:1001A3008182F05017906198E0F8900AC6E0C398F6
:1001B300A2D265D0335002E8F075A1FEEEA2E09220
:1001C300AF7F010204ACC0E074F212044DA2AFE4AD
:1001D30033FED2AF9061A4E0F8759B00E5915854CB
:1001E3000860087591F7121B36802AE59158541060
:1001F30060087591EF121B3C801BE8A2E0C0D0E5BC
:1002030091A2E092F01209CF158182F05007E0C26B
:10021300E0F0121C809061A3E0F8E5E95854046013
:100223000E121C5675E9FB906193E0A2E640F28042
:100233008BC0E074F212044DA2AFE433FED2AF9050
:1002430061A5E0F8E5BF585404600675BFFB121CB6
:10025300980201BFC3E498F8E499F9120298802642
:10026300C3E49AFAE49BFBE920E7E9120298E498D5
:10027300F8E499F922C3E498F8E499F9120298E4AE
:1002830098F8E499F9C3E49AFAE49BFB22EB20E79C
:10029300CFE920E7E0B90010BB0008E88AF084F852
:1002A300AAF022E4FBC8FA22EB70227B10C833C801
:1002B300C933C9335007C39AC3DBF280069A50018E
:1002C3002ADBEAC833F4C8C933F4C9FA2275F00843
:1002D300E4C833C8C933C933C99AC99B5004C92A6E
:1002E300C93BD5F0ECFBC833F4C8E4C9FA220808CB
:1002F30008EAC0E0EBC0E086F0E7A4FA180986F04C
:10030300E7A42AFA180986F0E7A42AFA180986F05E
:10031300E7A42AFA1986F0E7A4FBE5F02AFA1908FC
:1003230086F0E7A42BFBE5F03AFA190886F0E7A478
:100333002BFBE5F03AFA18180986F0E7A4C5F02B71
:10034300FBE43AFA1908E7C5F0C6A426F6E5F03B44
:10035300FBE43AFA1886F0E7A4F6E5F00826F6E49B
:100363003B08F6E43A08F6D0E0FBD0E0FA22E4CF0B
:10037300C0E0E4CEC0E0E4CDC0E0E4CCC0E075F082
:1003830020C3E633F608E633F608E633F608E63329
:10039300F6181818EC33FCED33FDEE33FEEF33FFA4
:1003A300C3EC9709ED9709EE9709EF9719191940CF
:1003B3000FFFEC97FC09ED97FD09EE97FE1919065F
:1003C300D5F0BEECF709EDF709EEF709EFF71919C8
:1003D30019D0E0FCD0E0FDD0E0FED0E0FF222518EC
:1003E300C582C0E0E51934FFC583C0E0E518C395B5
:1003F3008224F810AF0885831985821880088583C5
:1004030019858218D2AFCEF0A3E520F0A37808E6D1
:1004130008F0A3DEFAEFF0A3E58124FAF8E608F08A
:10042300A3E608F0A3E608F0A30808E608F0A3E6AD
:1004330008F0A315811581D0E0FED0E0F8158115F1
:10044300811581E8C0E0EEC0E022C0D02518C58246
:10045300C0E0E51934FFC583C0E0E518C3958224E5
:10046300F310AF0885831985821880088583198561
:100473008218D2AFC8F0A3E9F0A3EAF0A3EBF0A38C
:100483007908E709F0A3D8FAECF0A3EDF0A3EEF0B6
:10049300A3EFF0A3D0E0F0A3D0E0F0A3D0E0F0A36B
:1004A300E520F0A3E5F0F0A322851983851882E007
:1004B300C0E0A3E0F9A3E0FAA3E0FBA37808E0F629
:1004C30008A3DFFAE0FCA3E0FDA3E0FEA3E0FFA3A3
:1004D300E0C0E0A3E0C0E0A3E0F5D0A3E0F520A3F3
:1004E300E0A3F5F010AF088583198582188008858D
:1004F3008319858218D2AFD082D083D0E0F8D0E0C0
:1005030032120B0AB90003020546E4900301788D09
:10051300790E8002F0A3D8FCD9FA90108DAA82AB91
:100523008390008678E079018015E493A3AC82ADD3
:10053300838A828B83F0A3AA82AB838C828D83D838
:10054300E9D9E775825A7583E0740312086B7582E3
:100553002C75831F740012086B75F0108E1A8F1B95
:1005630085821F85831E851882851983E0CEA3E0CB
:10057300CF851F82851E83EBC9EAC8EDCBECCAC3C6
:10058300E833C8E933C9EA33CAEB33CBC3EA9EF590
:100593001DEB9FF51CB35004AB1CAA1DEC33CCED33
:1005A30033CDD5F0DAAE1AAF1B22D083D082ECC0A4
:1005B300E0EDC0E0E493A3FCE493A3FDED4C600DF8
:1005C300120685EC24FFFCED34FFFD80EFE493A3DA
:1005D300FCE493A3FDED4C600D120753EC24FFFCE8
:1005E300ED34FFFD80EFD0E0FDD0E0FCE493A3C049
:1005F300E0E493C0E022851983851882E0A3FEE03E
:10060300A3F5207808E0A3F608DFFAE0A3FFE0A350
:10061300C0E0E0A3C0E0E0A3C0E0E0A3C0E0E0A34B
:10062300C0E010AF08858218858319800885821879
:10063300858319D2AFD083D082020871D083D08250
:10064300E9C0E0E493A3C386F0C5F095F0F908E4AC
:1006530093A386F0C5F095F0700BE493A3C3994080
:1006630005E9048002A3E475F002A42582F582E57E
:10067300F03583F583D0E0F9E493A3C0E0E493C0BD
:10068300E022C0E0C3E49396087401939618400FE8
:10069300E49366700808740193661870007019A3D8
:1006A300A3C3E49396087401939618A3A3400DD0B3
:1006B300E0D0E0D0E00205E9A3A3A3A3A3A3D0E085
:1006C300227404800474028000CCC0E0EDC0E0E535
:1006D30018C39CCCAD1950011D10AF068C188D1991
:1006E30080068C188D19D2AF1207EDD0E0FDD0E053
:1006F300FC22C0E074F212044DE589A2E15003121A
:1007030019BC758900C2C57F010204ACC0E074F254
:1007130012044DE58BA2E050031219BC758B00C285
:10072300E880E474028000CCC0E0EDC0E0E518C3CB
:100733009CCCAD1950011D10AF068C188D19800685
:100743008C188D19D2AF1207CBD0E0FDD0E0FC227C
:10075300C0E0C0F088F0E493667008087401936603
:10076300187000A8F0A3A3700BD0F0D0E0D0E0D0B5
:10077300E00205E9A3A3D0F0D0E022D083D082CC5D
:10078300C0E0E493A3600612082D1470FAE493A367
:10079300600612093D1470FAD0E0FCE493A3C0E0B4
:1007A300E493C0E022C0E074F212044DA2AFE4333C
:1007B300FED2AFC2C0E5D1A2E45003121A5EEEA28C
:1007C300E092AF7F010204ACCAC0E0E493A3C58208
:1007D300CCC582C583CDC583F0A3C582CCC582C5F4
:1007E30083CDC583DAE5D0E0CA22CAC0E0E0A3C561
:1007F30082CCC582C583CDC583F0A3C582CCC58217
:10080300C583CDC583DAE6D0E0CA2270090808089B
:10081300226016181818C6C333C608C633C608C6DE
:1008230033C608C633C6D5E0EA22C0E0E493A3D3B7
:100833009C5010E493A3C39C400AD0E0D0E0D0E0E6
:1008430002079BA3A3A3D0E022C008C3E096F50848
:1008530008A3E096420808A3E096420808A3E0969E
:1008630045087001D3D00822C09FF59FE473D09F41
:1008730022D083D082C09FE493C0E0740193C0E090
:10088300740293F59F222518F58210AF08F51840DE
:100893000215198008F51840021519D2AF8519837E
:1008A300227404800A74038006740280027401C0F7
:1008B300E0F404120889D0E0120AE522C0D025181A
:1008C30010AF08F518500205198008F518500205F5
:1008D30019D2AFD0D022BB0102E722C082C08389E4
:1008E300828A83BB0003E08002E493D083D0822218
:1008F300C0E0C0D0E8C0E0E5A8D2AFC2C7A2E7928B
:10090300AFD0E0F8D0D0D0E0326016080808C6C3F4
:1009130013C618C613C618C613C618C613C6D5E021
:10092300EA22C3E0C696F608A3E0C696F608A3E05B
:10093300C696F608A3E0C696F622C0E0E493A36C3D
:100943007009D0E0D0E0D0E002079BA3A3D0E0225F
:10095300251810AF08F518400215198008F518403E
:10096300021519D2AF22E76670100809E766700A0C
:100973000809E76670040809E76622E06670100854
:10098300A3E066700A08A3E066700408A3E0662289
:10099300C3E09608A3E09608A3E09608A3E096A216
:1009A300D265D03322C3E096F008A3E096F008A303
:1009B300E096F008A3E096F022E026F008A3E036E4
:1009C300F008A3E036F008A3E036F022C0E0E8C068
:1009D300E0E58124FCF8E6A2E7D0E0F8D0E022E6E7
:1009E30047F60809E647F60809E647F60809E64721
:1009F300F622E026F608A3E036F608A3E036F6086A
:100A0300A3E036F622E627F60809E637F60809E6F4
:100A130037F60809E637F622E657F60809E657F6E9
:100A23000809E657F60809E657F622E056F608A342
:100A3300E056F608A3E056F608A3E056F622E05681
:100A4300F008A3E056F008A3E056F008A3E056F040
:100A530022700422600D18C6C333C608C633C6D538
:100A6300E0F41822E4C396F608E496F608E496F652
:100A730008E496F622C6F4C608C6F4C608C6F4C649
:100A830008C6F4C622C3E7960809E7960809E7965D
:100A93000809E79622C3E09608A3E09608A3E09628
:100AA30008A3E0962275D000758140751801751969
:100AB3000300020504E0F608A3E0F608A3E0F60845
:100AC300A3E0F622600C08C6C313C618C613C6D526
:100AD300E0F422E6F008A3E6F008A3E6F008A3E6B4
:100AE300F022CAC0E0E6F0A308DAFAD0E0FA22E086
:100AF300FAA3E0FBA3E0FCA3E0FD22EAF0A3EBF002
:100B0300A3ECF0A3EDF022E5C754F84401F5C7794F
:100B130001222518F582E43519F58322C2AF75D673
:100B23009F02000022120874D7DF02120874B9E092
:100B3300021208740EE3021208745BE402120874D2
:100B4300FEE40212087445E60212087463E6021218
:100B530008743A23001208744C23001208749E236D
:100B630000120874FF230012087489240012087409
:100B73002D25001208748125001208749A2500128D
:100B83000874C02500120874FB25001208743F2660
:100B930000120874662600120874B726001208743F
:100BA3006727001208741F2800120874E728001230
:100BB3000874A72900120874EB2900120874102A7C
:100BC30000120874532A00120874A02A0012087431
:100BD300F82B001208747E2C001208749C2C00124F
:100BE3000874C62C00120874E02C00120874EF2C51
:100BF30000120874FA2C00120874BA2D001208743B
:100C0300132E00120874D52E00120874DD2E001264
:100C13000874A12F001208740D30001208743831C3
:100C2300001208745D3100120874D3310012087485
:100C3300653200120874253300120874443300121D
:100C43000874533400120874653400120874D534E0
:100C530000120874FF34001208748D3500120874F2
:100C6300C635001208741236001208742E370012AB
:100C730008747739001208748239001208748D39A8
:100C830000120874983900120874A239001208740B
:100C9300AD3900120874C73900120874D139001233
:100CA3000874DB3900120874E639001208740E3A2E
:100CB30000120874693A00120874733A0012087437
:100CC300973A00120874BB3A00120874193B0012D9
:100CD30008745D3B00120874793B00120874F03B02
:100CE30000120874283C00120874743C0012087443
:100CF300D13C001208748B3D001208746F3F001240
:100D03000874C83F00120874F840001208741E41AA
:100D130000120874A74200120874234600120874D4
:100D2300F54700120874BE49001208746B4A00129A
:100D33000874D64B00120874754C00120874BA4C30
:100D430000120874244D00120874334D0012087405
:100D5300BA4F001208746C5100120874D951001272
:100D63000874B85200120874D153001208744E5517
:100D7300001208746D5500120874C25500120874ED
:100D8300C75600120874EF56001208744757001232
:100D930008742658001208746A5800120874B5586B
:100DA30000120874205900120874615A0012087462
:100DB300C55A00120874135C00120874735E0012A3
:100DC3000874A45E001208745C6000120874B160B9
:100DD30000120874B561001208745262001208749C
:100DE300AB62001208745E630012087400640012A0
:100DF3000874A064001208744565001208749F8784
:100E030001120874DE8701120874258A011208741E
:100E13006F8A011208748A8B01120874F28B011213
:100E23000874278C011208749B8D011208741E909C
:100E330001120874479101120874DD9101120874BC
:100E4300E59A011208747A9B01120874619E0112DB
:100E53000874549F01120874C29F0112087408A1F8
:100E630001120874EAA101120874CFA301120874D5
:100E7300E0A5011208744AA6011208741CA7011206
:100E830008744AA70112087407A801120874DEA89F
:100E930001120874A5A90112087449AA0112087461
:100EA30072AA0112087494AA01120874EAAC01121E
:100EB3000874C2AD0112087406AE011208746EAE56
:100EC3000112087426AF0112087458AF0112087496
:100ED3009CAF01120874D2AF011208741EB0011244
:100EE300087473B00112087478B001120874CBB09F
:100EF30001120874F0B001120874FFB101120874F2
:100F030063B201120874D3B2011208745FB3011201
:100F130008742CB60112087410B70112087493B840
:100F230001120874C9BA0112087477BB011208745C
:100F330027BC0112087468BE011208740BBF0112AA
:100F4300087452BF01120874FEC00112087412C162
:100F5300011208741CC10112087444C101120874FF
:100F630050C1011208746FC1011208748FC30112BA
:100F73000874DEC40112087422C501120874CAC5BC
:100F830001120874ADC60112087458C7011208741F
:100F9300A4C801120874A2C90112087448CA011234
:100FA3000874D8CA01120874EFCA0112087426CB58
:100FB3000112087430CB011208743BCB0112087480
:100FC30059CB011208749DCB01120874FACB01129C
:100FD30008741FCC0112087439CC01120874C5CCF3
:100FE30001120874E2CD011208744FCE0112087485
:100FF30036CF011208745DCF01120874D1CF0112EC
:1010030008744CD00112087450D10112087446D2EE
:1010130001120874F5D20112087408D4011208747D
:10102300A4D40112087431D5011208740FD6011229
:10103300087447D6011208749FD60112087468D742
:101043000112087489D70112087410D801120874A8
:1010530034D80112087456D8011208749FD80112AB
:101063000874B5DA011208749CDB011208744DDCB4
:101073000112087483DE01120874D3DE01120874AE
:1010830013DF0112087455DF01120874B1DF011276
:101093000874DFDF0112087403E00112087456E0DC
:1010A3000112087484E001120874BDE0011208748F
:1010B30012E10112087478E101120874CCE2011202
:1010C3000874EFE4011208745CE50112087485E505
:1010D3000112087410E60112087477E6011208740D
:1010E300C2E601120874E6E6011208740AE7011267
:1010F300087465E70112087480E70112087439E87F
:1011030001120874A4FC03120874E3FC03120874AC
:10111300788002120874BE80021208749E81021243
:101123000874A08202120874A383021208742F8524
:10113300021208748D85021208744A86021208741A
:10114300688702120874D98702120874158802127C
:1011530008746388021208746D8802120874B188D7
:10116300021208740D8902120874A8890212087405
:10117300258A02120874F48A021208748D8B0212F3
:101183000874AD8B02120874E38B02120874148C7A
:1011930002120874D58C02120874E58C02120874CA
:1011A300398D02120874548D02120874668D02126E
:1011B30008746F8D02120874C98D02120874258E8B
:1011C30002120874718E021208748C8E0212087453
:1011D300BD8E02120874DA8E02120874E68E0212B1
:1011E30008745A9002120874739002120874DA9009
:1011F30002120874ED9002120874FB900212087434
:10120300AF91021208749392021208749993021216
:1012130008742394021208742D94021208749A9489
:1012230002120874B19402120874E394021208744F
:101233001C9502120874469502120874A7950212AF
:101243000874C79502120874E595021208742B9668
:10125300021208745197021208749E9702120874BE
:10126300CD97021208744398021208746B98021205
:101273000874A49802120874B298021208740A99A6
:101283000212087459990212087498990212087488
:10129300C89902120874F49902120874FF99021291
:1012A30008741D9A02120874DF9A02120874E99AEC
:1012B300021208742A9B021208747F9B021208749C
:1012C300939B02120874A19C02120874B49C02122C
:1012D3000874C99C021208746B9D02120874EE9D77
:1012E30002120874AC9E02120874B79E02120874AC
:1012F300E39F02120874FF9F0212087451A00212A6
:10130300087490A002120874A5A00212087407A121
:101313000212087496A102120874E1A10212087461
:1013230032A402120874B0A40212087425A5021292
:10133300087447A7021208745FA70212087462A711
:10134300021208746EA70212087482A702120874AC
:101353008AA702120874BDA7021208746DA80212AC
:101363000874E3A80212087456A9021208740AAAA0
:1013730002120874BFAA02120874DEAA02120874C9
:1013830084AB02120874AFAB02120874B2AB021240
:1013930008741CAC0212087444AD021208741CAE2B
:1013A30002120874A7AE02120874C0AF02120874C6
:1013B3007DB002120874B6B002120874E7B00212CC
:1013C3000874A5B102120874D5B102120874B0B240
:1013D3000212087449B302120874D4B302120874D7
:1013E30085B40212087408B5021208743AB50212E1
:1013F30008747BB50212087405F5021208746AF5C5
:1014030002120874A7F502120874F6F502120874A2
:101413000CF802120874EFF90212087459FD021253
:10142300087494FD02120874B6FD0212087419FEC2
:10143300021208744DFE0212087470FE0212087440
:101443009DFE02120874F9FE02120874278D03121E
:101453000874A58D03120874DB8D03120874478E7C
:1014630003120874BA8F03120874D68F0312087418
:101473001B9003120874A9900312087486D60212F3
:1014830008742F92031208744193031208749E93F5
:10149300031208740A94031208746B9403120874F9
:1014A300AC94031208745995031208746B960312D3
:1014B3000874969603120874E19603120874289729
:1014C30003120874BA970312087475980312087408
:1014D3006AF003120874BBDF02120874EFF0031200
:1014E300087498DD0312087413DE031208741EDEF9
:1014F300031208743FDE03120874EC980312087495
:10150300F69803120874429903120874B0990312EF
:101513000874D19903120874819A03120874159DF3
:10152300031208741E9D03120874719D031208743C
:101533009A9D03120874019E03120874929E03126B
:101543000874D49E031208741E9F031208747D9FAF
:1015530003120874A99F031208743AA003120874B3
:1015630079A003120874B8A003120874EDA0031243
:101573000874FFA00312087411A10312087430A1A8
:101583000312087439A103120874EFA1031208743B
:101593002FA203120874F0FA031208746FEA0312FD
:1015A3000874A5EA03120874EEEA031208743EEC09
:1015B3000312087473E801120874B2E90112087483
:1015C300EEE901120874ADEB01120874D6EB0112B7
:1015D300087469EE01120874ADEE0112087436F056
:1015E30001120874CEF00112087436F10112087466
:1015F300D7F10112087419F20112087459F2011299
:101603000874E4F30112087454F50112087479F7AD
:1016130001120874A7F701120874CEF701120874B7
:10162300D7F7011208745EF8011208747CFB0112EB
:10163300087423FE0312087439FE0312087459FC5C
:101643000312087433DA0312087446DA03120874B7
:10165300E3DA031208741EDB0312087439DB031286
:1016630008745EDB03120874A3DB03120874D4DB73
:101673000312087405DC031208748BDD031208746B
:1016830038F5031208746EF5031208748AF5031211
:101693000874CCF503120874DCF50312087471F6B0
:1016A300031208747BF60312087493F6031208748A
:1016B3003ACB03120874F4CB03120874A4CC0312BC
:1016C3000874E9CC031208747BCD03120874F1CDBE
:1016D30003120874008003120874558003120874FF
:1016E3003E8103120874D781031208742182031206
:1016F30008747E8203120874928203120874C482EF
:1017030003120874C2830312087406840312087454
:1017130021840312087470840312087486840312EC
:101723000874938403120874C78403120874E08452
:1017330003120874AA85031208740486031208743A
:10174300528603120874748603120874EB8803121A
:101753000874208903120874B08903120874258A57
:10176300031208742A8A03120874668A031208741F
:10177300BC8A03120874808B03120874A58B0312AE
:101783000874AF8B03120874B28B031208743B8C7A
:1017930003120874568C03120874698C03120874BC
:1017A300A48C03120874A78C03120874B28C03125E
:1017B3000874EE8C03120874B1FF01120874C9FF98
:1017C3000112087494AB03120874E3AB0312087498
:1017D30085AD0312087443AF031208748BAF031271
:1017E3000874ADB003120874DEB10312087400B2BA
:1017F300031208745CB203120874DEB20312087495
:10180300916500120874B265001208743C660012F8
:101813000874C166001208743D6700120874A66755
:1018230000120874F26700120874716800120874D9
:101833000369001208748F6900120874D1690012D9
:1018430008743D6E00120874BD6F00120874937023
:1018530000120874C27000120874AD72001208748A
:101863002D7500120874E6750012087403770012D0
:1018730008745A7A001208746A7A00120874CB7BCF
:1018830000120874577C00120874807D00120874DB
:10189300717E00120874F37E001208748AE6021245
:1018A300087444E702120874B6E70212087452E897
:1018B30002120874C2E8021208747BEB0212087465
:1018C30052EC02120874BFEC021208743CEE0212CE
:1018D300087406EF0212087476EF021208743FF1DF
:1018E3000212087452F202120874EBF20212087424
:1018F300B1F3021208748FCF03120874E3CF0312FB
:1019030008743BD00312087486D003120874E8D01D
:101913000312087454D10312087407D20312087413
:1019230048D2031208745ED203120874BAD20312A7
:101933000874F8D20312087489EE03120874BAEE1D
:101943000312087474EF03120874DAEF03120874B5
:10195300E5E00312087471E203120874D0FD031268
:101963000874E1FD031208741FF2031208742DF2C8
:1019730003120874E5FF02120874C3FB0312087410
:10198300D3FB03120874EEFB031208744FFC03121B
:101993000874EEF90312087473FA03120874D7FA81
:1019A30003120874DCF803120874FEF803120874B7
:1019B30068F90312087473F903120874B7F9031270
:1019C300087412B30312087420B30312087461B3CA
:1019D300031208747BB303120874F8B30312087478
:1019E300F2B40312087417B50312087434B5031262
:1019F300087451B50312087476B5031208749EB5C2
:101A030003120874E6B50312087461B6031208746E
:101A130006B70312087458B70312087429D30312C4
:101A2300087437D303120874B1D30312087495D41E
:101A3300031208744ED603120874DC7F0012087474
:101A430017B80312087483B80312087442B9031257
:101A530008744CBA03120874A5BB0312087400BCC3
:101A63000312087455BC031208745EBC0312087495
:101A730070BC03120874DABC03120874EEBC0312C0
:101A83000874F8BC03120874C9C1031208741EC297
:101A9300031208741AC4031208744CC403120874A2
:101AA3006EC40312087487C403120874A0C403121B
:101AB3000874AAC50312087445C603120874D7F341
:101AC30003120874FBF30312087414F4031208746A
:101AD30047F40312087478F403120874A6F403128B
:101AE300087408F50312087417F50312087421F536
:101AF300031208742EF5031208741CE3031208740E
:101B030042E3031208747FE3031208748EE30312A3
:101B13000874ADE30312087415E4031208741EE499
:101B2300031208747DE403120874A1E40312087419
:101B330060E5031208746DE5031208747EE5031271
:101B4300087431FD031208744EFD03120874BCC6F9
:101B5300031208741AC80312087427C803120874FE
:101B63003AC80312087459C8031208746FC80312E1
:101B7300087483C803120874F8C8031208745DC993
:101B8300031208740DCA03120874E2CA031208741C
:101B9300F2CA0312087401CB031208744CFF021239
:101BA300087470FF0212087498FF02120874C0FFD1
:101BB30002120874ACE503120874D3E50312087427
:101BC300F4E50312087459E60312087412E80312C9
:101BD30008742BE80312087437E8031208744BE8FF
:101BE3000312087469E80312087473E80312087493
:101BF3007DE80312087490E803120874E3E8031203
:101C030008741CE9031208744BE90312087499E978
:101C130003120874E8E90312087403EA0312087450
:101C23000DEA031208741EEA0312087464EA03122D
:101C330008748B7F0012087458A20312087482A2DE
:101C4300031208749EA203120874B1A2031208744B
:101C5300C7A20312087424A30312087457A3031220
:101C6300087493A703120874B9A803120874ECA8A4
:101C73000312087438A90312087464AA03120874BF
:101C83008CAA03120874A1AA03120874B1AA03123E
:101C93000874F5AA0312087456AB0312087466ABF2
:101CA3000312087496F603120874B1F6031208744B
:101CB300DAF603120874F4F60312087419F7031220
:101CC300087438F70312087450F7031208747EF788
:101CD3000312087498F703120874EDFC03120874D6
:101CE300B3D603120874BAD603120874C6D7031204
:101CF3000874F6D7031208741CD8031208743FD86B
:101D03000312087461D8031208749BD80312087471
:101D130001D9031208743AD90312087486D903123D
:101D23000874B3D903120874D3D903120874A1EC4D
:101D330003120874B9EC03120874A7ED03120874B4
:101D430086EE03120874C9F7031208743BF80312F2
:101D5300087479F803120874BAF803120874FDFBC7
:101D6300011208741CFC011208746BFC0112087444
:101D730087FC01120874B8FC01120874C5FC011237
:101D83000874D2FC01120874BEFD01120874FCFD34
:101D9300011208740CFF0112087417FF0112087472
:101DA30029FF0112087432FF011208743CFF01126B
:101DB30008740CBD0312087451C1031208745FC187
:101DC30003120874A3FD031208746DFD0312087453
:101DD300FBFD0312087443FE03120874DAD50212E2
:101DE300087420D402120874D0D10212087457D197
:101DF30002120874FED0021208748ED00212087404
:101E030065D00212087445CE0212087411CE021274
:101E13000874DECD02120874C2CD02120874DBCC42
:101E23000212087493CC02120874DECA02120874F8
:101E33005ECA021208745BCA0212087458C90212FD
:101E4300087426C90212087463C8021208748EC685
:101E5300021208741FC602120874F1C50212087434
:101E63003FDF02120874F6DE02120874AEDE0212BD
:101E73000874FCDD021208746EDD02120874EEC5EC
:101E830002120874DBC50212087486C502120874B4
:101E930061DD0212087475C50212087467C4021268
:101EA300087431C402120874DFC3021208745BDAC7
:101EB300021208749AF00312087480C302120874A1
:101EC3004FC30212087417C002120874D7BF02125C
:101ED3000874CBBF021208742BBF021208746BBEC6
:101EE30002120874EDBB021208747EB90212087460
:101EF3003CB90212087410B802120874C5B7021272
:101F0300087404B702120874D7B6021208741AB61A
:101F130002120874B0B502120874EAB5021208740A
:101F2300BDD70212087402910300000080FBE47322
:101F33000001363601010001020100010301000125
:101F43000401060605020000070100340801000F22
:101F5300090401010D0100FF0E0800001702000033
:101F6300190100FF1A0100011B0100FE1C010008FA
:101F73001D0200001F0100012001000121020000D9
:101F83002301000F2402000026010001270100089D
:101F9300280200FF2A0100072B0102402C01000048
:101FA3002D0100012E0100012F0100FF30010B1C48
:101FB300310800003A0100083B01000F2F01000027
:101FC3000302710230016002110270020102020277
:101FD30002028002100261023A00410063027302AE
:101FE300720262024302000213023800000200027E
:101FF30004021202000200020002000204020402B0
:10200300370037003C02440200023900000200029C
:102013006502000235028102000205028202830288
:1020230000020300710030016000110070003102F2
:1020330020035004800010006100000014006300BE
:1020430073007200620043000000130006000000EA
:102053000000040012000000000000000000040063
:102063000400370037003C02440000000000000079
:10207300000065000000350081000000050000003D
:10208300830000000304710402046004110470045B
:102093000204020401040204100461040004140491
:1020A3006304730472046204430400041304060407
:1020B30000040004040412040004000400040004E7
:1020C30051046400000400040004440400040004F8
:1020D300000400046504000435048104640005045D
:1020E30000048304000401037103010301030103DA
:1020F300010301032203020301031003000300038E
:10210300000300030003000300034203000324034E
:10211300060300030003040312032503230325031B
:102123002303040304030003000300034403000325
:102133000003230300036503210035038103000328
:102143000503000300030003010171010101010103
:10215300110101013101010101018001100161013E
:102163003B0014006301730172016201430100012A
:10217300130106013D0135000401120100010001B4
:102183000001000104010401330133013C01440156
:1021930032013600000100016501000135008101B3
:1021A30000010501820183010001360001000600E0
:1021B30000000F000000000000000000000000000D
:1021C30003FFFF00000403FFFF0000FFFF0FF40104
:1021D3000005C4040320000100030B0000000000FD
:1021E30000000003010F0000B4181300541801008D
:1021F300B41802001E180300241804002A1805004E
:10220300301806003C18FFFF000001460E06760E4C
:1022130008700E0B820E10C20D024C0E05640E07E1
:10222300520E0C280E0D3A0EFF000003EAF5E5D519
:10223300D5C5B5A59595858575756565555545458B
:10224300353525251515054E127E1254125A12786E
:10225300126C12661284128A1290129C1260124837
:1022630012421200160F00000B150B020002220F80
:102273003200000638134A13501318125613121261
:102283001E1252114C1188118E1182113A119213A0
:10229300B013B6139813A4139E13303016181920D5
:1022A300231A1C1E300C0E020B040B0A0708000F26
:1022B30000383C3E363B3B352B432C303017181946
:1022C30021301B1D1F300001191618161615230384
:1022D3000000034948424D181725050286135C1375
:1022E30062136E13681372129612AA13A212A81223
:1022F3000204020101010109025E116411581194E3
:10230300110000000000006A117C1100BE040A0ED7
:1023130000150004007F00E8030C00280000000003
:1023230000090308100C0A03080900040001FF1E3A
:102333001E0C05040F1008C082C0838A828B83E0C1
:10234300D2E7F01217820234B1C082C0837900123F
:10235300280612551DC082C0839003341242A3D0B5
:1023630083D082C3E09CA3E09D500C125BF1FAA3DF
:10237300E012237D6001090234B1FBEA75F00BA47E
:10238300FAA8F075F00BEBA428FB900336E02AF8CB
:10239300A3E03B8882F583E0540F2274F71203E134
:1023A30089081228061228ACACF075F00BE9A42CAE
:1023B300F9900336E028FEA3E039FF740165086055
:1023C300067402650870208A828B8312289812355E
:1023D3007F74026508701B1227571228DF70138E53
:1023E300828F83E4F0800BEA2403FCEB12287A1239
:1023F3002886EEFAEFFB120B520234E974F412034F
:10240300E112651879008E828F83E06076890A89EC
:102413000B8065E50A75F00BA4FAA8F075F00BE5DF
:102423000B12238A7046E50A75F00BA4F8AAF0751F
:10243300F00BE50B1228BE8E828F83E08508828520
:1024430009831229A0850882850983A312357FEEAB
:102453002403FCEF1228831234B8124F97AA08AB57
:1024630009120B5279019003341249ACE50A240195
:10247300F50AE50B3400F50B12275FE50A9AE50B25
:102483009B409002372974F51203E1EAFEEBFF74D7
:102493000B120B151234BD750A01EC4D602BEC12B7
:1024A3006534ED12551D1235777901120B5EE5087F
:1024B3004509606F850882850983A3126522790225
:1024C300AA08AB09120B5E805AE5084509602B1276
:1024D3005521123BEB1234B91228C9700CEEFAEFF6
:1024E300FB120B64E9F50A80CBEE2403FA122801F0
:1024F30070317903EEFAEFFB80CA8E828F83A3E0FB
:1025030064FE7003A3E0F4700BEE24030A0A0A12BC
:102513002801700CEEFAEFFB120B64E9F50A800355
:10252300750A00A90A7F030205F974F71203E19003
:1025330003341234F9EA4B602FEA75F00BA4FAA8BE
:10254300F075F00BEBA428FBEAFEEBFF1215A89045
:1025530003361234F99003361247F16012EEFCEFA2
:10256300FD790012150C8007900336E4F0A3F00206
:1025730034E9900334123F5BC3EE98EF9922C08293
:10258300C083EC4D6005121D5880097C087D0079DD
:102593000012150C0234B174F61203E17900EA4B10
:1025A300601878008808125864EB125BED600479B8
:1025B30001780808E8C3940840EA02358874F712E2
:1025C30003E174F3120953ECFEEDFF8518828519BC
:1025D30083E4F004120B15EAF0A3EB124D1D740310
:1025E300120B15AC82AD83EEFAEFFB120B76EEFA0B
:1025F300EFFB120B7C0234E474F71203E174F31261
:102603000953ECFEEDFF851882851983E4F0EAFC9B
:10261300EBFD7403120B151229997401120B151299
:1026230035738E828F8312357F74FE68700374FF57
:102633006960047901800279000234E474F71203BB
:10264300E1EAFEEBFF12269D70141226A88E828FFC
:1026530083E0F4F88A828B83E058F0120B52A908C6
:102663000234E974F71203E1EAFEEBFF7508008E0A
:10267300828F83E0602212269D701D1226A88A8213
:102683008B83E08F838E82F8E058700CE0F88A82A7
:102693008B83E048F0120B5280C4120B58E9F50803
:1026A300740165082212652D1228B01227F2FAA3CD
:1026B300E039FB2274F41203E18A088B097C007D64
:1026C3000012275712288612281712651F790085D2
:1026D3000882850983A3E064FE7003A3E0F46071BC
:1026E3007E007F008062EEFAEF12237D6057EEFAE0
:1026F300EFFBEA75F00BA4FAA8F075F00BEBA42836
:10270300FB900336E02AF50AA3E03BF50B8508822C
:10271300850983A3124C6B850A82850B83A3E06A28
:102723007003A3E06B701EE50A2403FAE50B12287D
:1027330002700AE50A2403FCE50B12288312280B16
:1027430079011255331230F612275FEE9AEF9B4050
:1027530095023729EA24030A0A0AEB22900334126A
:10276300510AC32274F31203E18A088B098A828B0C
:1027730083A312652212280612651F750C00122707
:102783005712280270547E007F0080491227E4FA12
:10279300A3E0398A82F583E0540F60361227E4F50B
:1027A3000AA3E039F50BE50A2403FCE50B12288D97
:1027B3003400FB121D52E964017017850A82850BF0
:1027C30083A31251CBA312357F12280B750C011270
:1027D30055331230F612257540B2A90C7F05020558
:1027E300F9EEF8EFF9E875F00BA4F81227F222AA34
:1027F300F075F00BE9A42AF9900336E02822EF12D2
:1028030028D922126533EB2212281712552EEEF027
:10281300A3EFF022E508126534E5092274F51203EB
:10282300E1EAFEEBFF8E828F83A31265227C007D9B
:1028330000EE24030A0A0AEF122886EEFAEFFB12CF
:102843000B58E9F50A7401650A702912652D1228DF
:10285300ACAAF075F00BE91228BE850882F5831245
:1028630028981228C9700DE5082403FCE5091228ED
:102873007A1228860225263400FDEE2403FAEF227D
:1028830012288D3400FB120B76223400FDE5082458
:1028930003FAE50922A312289D221228A122E0F8B7
:1028A300A3E0F98E828F83A3221228B0223400F58D
:1028B30083123F5FE875F00BA4F8221227F8F5089E
:1028C300A3E039F50922E8F0A3E9F0E5082403FAC7
:1028D300E5091228D9221228DF6401223400FB12F1
:1028E3000B7CE92274F31203E174E61209531265B7
:1028F30018750C01750800750900750A00750B0041
:10290300851882851983E4F0EE2403FCEF3400FD7F
:102913007403120B15122999E964017023740B12C5
:102923000B151235777401120B15124C6F7003A33C
:10293300E06960518518828519838582088583093A
:10294300740D120B15E41229A0740E120B15123517
:102953007F740D120B15AA82AB83120B9AE96401E3
:10296300700B740D120B1585820A85830B780A127E
:1029730008ACAC08AD09EEFAEFFB120B6A74021255
:1029830008BFE9F50CEEFAEFFB120B94A90C741ACD
:102993001208BF0227DF122C6C120BA0221234F490
:1029A300123F5B22C082C083780079008003122A21
:1029B3009712275FE89AE99B5029E8FAE9FBEA7541
:1029C300F00BA4FAACF075F00BEBA42CFB900336E0
:1029D300E02AFCA3E03B8C82F583E0540F70CF79AF
:1029E30000800279010234B1C082C08390231412A3
:1029F3003FB1EC75F012A4FCA8F075F012EDA42819
:102A0300FD79FF7A357B0B12150C0234B174F71282
:102A130003E1E9FEEAFF7A007B0078007900802871
:102A2300E8FCE9FDEC75F012A4FC85F00875F012E2
:102A3300EDA42508122EACC39E400AE0FCEFC39C14
:102A43004003122FCB122A97122EA040D30234E94F
:102A5300C082C083780079008003122A97122A8BE0
:102A6300501F122EB0F470F2E875F012A4F8AAF019
:102A730075F012E9A42AF9743528FA740B39FB802E
:102A8300047A007B000234B1902314122F61C3E84F
:102A93009AE99B22E8240108E93400F92274F01230
:102AA30003E174F31209538A0A8B0B8C0C8D0D8985
:102AB30008EC450D6016AA0CAB0D120BEE8A0E8BBB
:102AC3000FAE0EAF0FEE4F6003022B5E120BC48AE4
:102AD3000E8B0FA80EA90FE8FEE9FFE849607C9072
:102AE3002322122BC06022740365086006740465F8
:102AF3000870167A047903120BBE902322122BD787
:102B030040077A007B00022BBD902320122BC0606C
:102B13001B74016508600674026508700F7A0279F8
:102B230001120BBE902320122BD750D68518828515
:102B330019837401F0120B15124F97AC0CAD0D7481
:102B430003120B15122C65740B120B151234C512DC
:102B5300395FE4124F7F1210928004EE4F604A787F
:102B63000074FF2508C39404500278048E828F8377
:102B7300124F978E828F83A3A3A3A3E508F0E88E59
:102B8300828F83A3A3A3A3A3124F9F120290122F9A
:102B9300788E828F83A3A3A3A3A3A3A3F0122F6F83
:102BA300120AF2125517120AFE122BC54005901095
:102BB30091E4F0120F6CEEFAEFFB023F651250B98D
:102BC30049227A047900120BBE902314125BD3EAD4
:102BD30098EB9922122BF0758323758214E493C327
:102BE30098F8A3E49399F9C3EA98EB9922E493F84C
:102BF300740193F92274F21203E174F31209538AF4
:102C0300088B09ECFEEDFF750A00EEFAEFFB120BE1
:102C1300EE8A0C8B0DA80CA90DE849603E888289C9
:102C230083E065087004A3E06509602F88828983C7
:102C3300A3A3A3A3E0C3940550211253C58518820F
:102C43008519837401F0120B151253C9EEFCEFFDC5
:102C53007403120B15122C65750A01A90A740D026F
:102C63004A63122C6C120BAC22AA82AB83120B7632
:102C7300851882851983AA82AB832274F61203E135
:102C8300122CBA600FA3A3A3A3E014C394045004AB
:102C930079018002790002358874F61203E1122C5F
:102CA300BA600FA3A3A3A3E014C394025004790151
:102CB30080027900023588120BE88A828B83E582D1
:102CC30045832274F61203E1122CBA600BA3A3A36B
:102CD300A3E07004790180027900023588C082C0C4
:102CE30083EAFCEBFD7A007B000234AEC082C08332
:102CF3007C007D000234AE74F41203E174F3120914
:102D030053EAFEEBFF8C0A8D0BC3EC94F8ED94FFB2
:102D13004007EE4F7003022DB3750800750900805C
:102D23002E8518828519837401F012311E120B153A
:102D330012312C60137403120B15AC82AD83EEFABF
:102D4300EFFB121D52E97049E5082401122F4C9044
:102D53002314E41250C1E50898E509995052E50897
:102D630075F012A4F8AAF075F012E509A42AF91275
:102D73005C0660D4EE4F70A974FF650A700474FF9B
:102D8300650B60C412310E650A7004A3E0650B7015
:102D9300B7E50875F012A4F508A8F075F012E50977
:102DA300A428F50974352508FA740B3509FB80044A
:102DB3007A007B0002372474F41203E174F31209DE
:102DC30053750800120BEE8A0A8B0BAE0AAF0BEE9B
:102DD3004F602A85188285198374011234EEF8A393
:102DE300E0F9740B120B15123602120B8E7C127D56
:102DF3000079FFEEFAEFFB12150C750801122BC5D3
:102E030050099010917401F0120F6CA90802372435
:102E130074F71203E1E9FE74FE6A700374FF6B78C2
:102E230000790070058052122A97122EA0504AE8AA
:102E3300FCE9FDEC75F012A4FCAFF075F012EDA403
:102E43002F122EACF460E0E8FCE9FDEC75F012A45F
:102E5300FC75F012EDA42FFD74352CF582740B3D37
:102E6300F583E06A7003A3E06B70BC8009122EB097
:102E730014C394044017122A97122A8B5018EE7029
:102E8300EC122EB064016005E0640370E91230FFB8
:102E9300FAA3E0FB80047AFE7BFF0234E99023145B
:102EA300123FB5C3E89CE99D2212300022E8FAE9FB
:102EB300FBEA75F012A4FAACF075F012EBA42CFB4C
:102EC30074392AF582740B3BF583E022120C00025D
:102ED30034B1C082C083790180F274F01203E18AB5
:102EE3000A8B0B7A047901120BBE8A0C8B0DEA450F
:102EF3000D603EEAC333FAEB33FB1215A88A088B45
:102F030009AE08AF09EE4F60237AFE7BFF120C0671
:102F130074FE6A700374FF6B601B850882850983E6
:102F23001234F9E5082402122F4C80E1750C00805D
:102F3300047E007F00850A82850B83E50CF0EEFAA0
:102F4300EFFB023F6AE5082407F508E5093400F5BD
:102F53000922902314123FB5C3EA9CEB9D22E4930C
:102F6300FA740193FB22121500740322125528E40C
:102F7300F090877422E88E828F83A3A3A3A3A3A3D5
:102F8300A3A3122F9A7401122F9AA3F0EE24101206
:102F9300552BE4F0A3F02212396BA3A3A322C08222
:102FA300C0837A007B00800419122FCB122F555057
:102FB30010122FEAC3940550F0E970EC122FD4805D
:102FC300047A007B000234B1EA24010AEB3400FBEB
:102FD30022EA75F012A4FA75F012EBA428FB7435FB
:102FE3002AFA740B3BFB22EAFCEBFDEC75F012A40E
:102FF300FCA8F075F012EDA42812300022FD7439FC
:103003002CF582740B3DF583E02274F71203E1740F
:10301300F31209537E007F000230B2E50875F01702
:10302300A4F8A9F0125E67FAA3E0FBEEF8EFF9E863
:1030330075F012A4F8ACF075F012E9A42C12310D5E
:103043006A7003A3E06B603FE50875F017A4F8AA64
:10305300F0EA125E66F8A3E0F97401120B15E0685A
:103063007003A3E0696020E50875F017A4F8EAF996
:1030730074B128FC740C39FD7403120B15AA82ABCE
:1030830083121D52E96014E50875F017A4F8A9F03E
:1030930074AF28FA740C39FB12109E05089023278D
:1030A300E493F8E508C398500302301E1230F690FB
:1030B30023141261AD5039EEF8EFF91230FFF470BA
:1030C30003A3E0F460E68518828519837401F0EEAA
:1030D300F8EFF9E875F012A4F875F012E9A42AF9EB
:1030E30012311E120B1512312C60C175080080AD10
:1030F3000234E4EE24010EEF3400FF22E875F012EF
:10310300A4F8AAF075F012E9A42AF9123112227474
:103113003528F582740B39F583E022743728F5825C
:10312300740B39123F59740B22E8F0A3E912360AE3
:10313300120BA6E922C082C08390033D745EF0A304
:10314300740EF090033F7458F0A3740EF090034391
:103153007478F0A3740CF00234B174F71203E1EA4B
:10316300FEEBFF900377E06408601BE064046016E5
:103173008E828F83E05403640170481234B8123A8C
:1031830060E06406703D8E828F83A3A3E064FE70CB
:1031930003A3E0F4602D8E828F83A3A31235739073
:1031A3000368E0687003A3E069700BEE2415F582F1
:1031B300EF125BED6008120F0CE9F5088008120F9F
:1031C3001280F67508C2EEFAEFFB1215AE02266105
:1031D30074F41203E18A088B098A828B83E0F8A3D3
:1031E300E0FAE82AFAE43400FB1215A88A0A8B0BEA
:1031F300AE0AAF0BEE4F6063850882850983E0FC5E
:103203007D00790012150C8E828F83A3A312652291
:10321300120F4E8E828F83A3A3A3A31234F98508C2
:1032230082850983E0F8EE28F8EF340012357B85B8
:103233000882850983A3E0C0E0EE240D12551AD05D
:10324300E0F0120F60EE240E12551AE9124BCCE097
:10325300C0E0EE241112551AD0E0F0EEFAEFFB02B3
:10326300372974F61203E174EB120953EAFEEBFFFC
:103273001247EE60030233097A077B001215A89008
:1032830003391234F91247EE60788E828F83120A63
:10329300F290033A123A63120AFE1263E6C0E01296
:1032A3003315D0E0F0EE2405FAEF3400FB8A088BE7
:1032B300098A82F583E0C0E0123310D0E012372090
:1032C300E0C0E0123310A3D0E0123565120AF28594
:1032D3001882851983120AFE88828983E0C0E0740C
:1032E30005120B15D0E0F0850882850983E0C0E064
:1032F3007404120B15D0E0F07407120B1512344B43
:103303008006791080027901741502358512331510
:10331300A322900339E0FAA3E0F5838A82A3A3A34F
:10332300A322C082C0831247EE600D90033912506E
:10333300F8900339E4F0A3F0120E7C12103E02342D
:10334300B174F01203E174EB120953ECFEEDFF8943
:10335300087425120B15780C120AB87429120B1570
:10336300E0F9742A120B15E0FC742B120B15E0FD27
:10337300740F697005740F6C60129010D7E06402CB
:10338300700579C1023446E9C39C40F6900378780E
:103393000C120AD6E50890037EF0E990037CF0EC6A
:1033A300A3F0ED90037FF074FF6A700374FF6B70FA
:1033B3001D9010E2E0F47003A3E0F4700512151EF3
:1033C300800C9010E21234CEE8F0A3E9800790035A
:1033D30075EAF0A3EBF0EE4F6017EEFAEFFB121075
:1033E300FEE96401700BEEFCEFFD7A897B03121D8D
:1033F30058900368E4F0A3F090036BF0A3F09003FC
:1034030088F09010D7E06402700890037C740FF08A
:10341300A3F09003777405F014120B15E4F09003F6
:1034230078120AF2851882851983120AFE90037EA8
:10343300E0C0E07405120B15D0E0F07407120B1511
:1034430012344B7415023F67E412360A121D8222AE
:10345300C082C083900338E0700312184E120C48E8
:10346300804CC082C083900338E09010907004E4D5
:10347300F0802D7401F0900338E0F460237C41E088
:10348300C394415002E0FCECF8E0C398F0EC75F013
:10349300E8A4CCA8F075F003A428FD7A80123FBD00
:1034A3007A907B107941121D708003120BF4D08344
:1034B300D082020871EE12552922E0F508A3E0F547
:1034C30009221234C9221228A1A322123F5B9003BE
:1034D300752274F71203E1EB90037FF0120E6A80FA
:1034E30005740D1208BF7F010205F91234F4A3E03D
:1034F30022123565A322EAF0A3EBF02274F712033C
:10350300E174F8120953EAFEEBFF7900900377E0C8
:103513006408704485188285198374FDF0A374FFD1
:10352300F0120F487402120B151234F97405120BC2
:1035330015E41234F4E0C0E07404120B15D0E01269
:103543003560C0E07406120B15D0E0F07407120B5F
:1035530015E4123606120F8A74080234E612356532
:10356300E022F08E828F8322F085188285198322D0
:10357300123F5B22E0F8A3E0F9125528E8F0A3E933
:10358300F0221208BF7F020205F9C082C0839003B4
:10359300497408F0A3740DF09003EF74E4F0A3747E
:1035A3000FF090034D743EF0A3740DF090034F742D
:1035B30008F0A3740DF09003517444F0A3740DF05C
:1035C3000234B174F41203E174F91209538A088BBB
:1035D300098C0A8D0B8518828519837808120AD6FF
:1035E3007404120B15E9F07405120B15E4F074065C
:1035F300120B15E4123606120C307407023726E854
:10360300F0A3E912360A2212356BAA82AB83227425
:10361300F41203E18A088B098A828B83125536EEF2
:103623004F700302371E9003121247F160158A820E
:103633008B83A3A3E0F9EEFAEFFB900313123A6333
:10364300121F318E828F83A3A3A3A3A3A3A3A3A338
:10365300E0640270748E828F83A3A3A3A3A3A3E069
:10366300540270030236F0850882850983A3A3E020
:1036730064E960798E828F83A3A3A3A3A3A3A3A3E7
:10368300A3A3E070149010DAE0048E828F83A3A3C7
:10369300A3A3A3A3A3A3A3A3F08E828F83A3A3A314
:1036A300A3A3A3A3A3A3A3E014123720A3A3A374E8
:1036B30004F09010DB124F71E8F0A3E912604A8B1B
:1036C3000BEA450B7003125A288E828F83A3A3A3A0
:1036D300A3A3A3A3A3A3E0640260128E828F83A398
:1036E300A3A3A3A3A3A3A3A3E06406702E8E828F38
:1036F30083A3A3A3A3A3A3E0A2E0501F850882850D
:103703000983A3A3E0F9EEFAEFFB121E128E828F58
:1037130083A3A3A3A3A3A3E054FEF08009123967F4
:1037230022740D1208BF7F040205F974EC1203E141
:1037330074DD120953EAFEEBFF8C088D097437120E
:103743000B15780C120AB8750A007405120B15AC28
:1037530082AD83120B2E7412120B15E070087415D0
:10376300120B15E060207405120B15E0A2E6501E43
:103773008E828F83A3A3A3A3A3A3A3A3A3124C6BA0
:10378300120FC0E960087903121D4002394D740518
:10379300120B15E0540C64047005750B018003755E
:1037A3000B00E0A2E55035750A01E50BA2E0402CC1
:1037B300120F4E8A108B11A810A9111234B8E068A9
:1037C3007003A3E06960157405120B1512652912C5
:1037D3004C67121E1EE96004790480AC7405120B59
:1037E30015E0A2E650227406120B15E0540370187C
:1037F3007405120B15E0540C640C600CE0540C645B
:1038030008600575100180037510007405120B150F
:10381300E05403F8740268700C126529124C6712A5
:103823000B4002394D740168703AE510A2E0500371
:103833001239557405120B15A882A9837403120B50
:1038430015E8F0A3E9123F4F8518828519831239D1
:103853005FE0C0E07402120B15D0E0123606121FAF
:103863000202394DE8600302394D90035FE06401C1
:1038730070108E828F83A3A3A3A3A3A3E07003027C
:1038830037DB7422120B157402123F4F741A120B9A
:103893001512357FE510A2E050087405120B1512BE
:1038A3003955E50BA2E0506AEE240FF582EF125B67
:1038B300EDC0E07417120B15D0E0F090031412471B
:1038C300F1700302394D120F4E8A128B13A812A9FD
:1038D30013741A120B15E0687003A3E069706B7818
:1038E3000C1208A4780A1208B078081208ACA910C0
:1038F300740C120B15AC82AD837421120B15AA82C2
:10390300AB83900314123A60121F3174071208BF7D
:103913008038780C1208A4780A1208B078081208C4
:10392300AC9003751206C8EE2412F582EF12591BF0
:103933007423120B15AC82AD83740E120B15AA827D
:10394300AB83121E0674091208BF74231208BF0248
:103953006015126529125106120B3422E8F0A3E90F
:103963001239672212396B22F08E828F83A3A3A3AD
:10397300A3A3A32274F71203E112173A0234E974E2
:10398300F71203E11217400234E974F71203E1124C
:10399300174C0234E9C082C0831217460234B17453
:1039A300F71203E11217520234E974F71203E174B8
:1039B30009120B15E0F50878081208B012175E74A7
:1039C300010234E6C082C08312176A0234B1C08296
:1039D300C0831217700234B174F71203E112177621
:1039E3000234E974F71203E1EAFEEBFF890874017C
:1039F300650870147900120D80902332E493FC79EA
:103A030000EEFAEFFB120CF60234E974F41203E150
:103A130074F9120953E9FE8A088B098C0A8D0B7419
:103A230013120B15124C6B9005A91247F16027EE88
:103A3300851882851983F07401120B157808120A10
:103A4300D6EAF8EBF97405120B151236029005A9A4
:103A5300123A60121F310235FDFB90034BE0F8A3CD
:103A6300E0F583888222C082C0831217A60234B194
:103A730074F71203E1901093E0F97E00800B125B60
:103A8300D9540D64017001190E123C6D5003E97095
:103A9300ED0234E974F71203E1901094E0F97E002B
:103AA300800B125BD9548D64817001190E123C6D29
:103AB3005003E970ED0234E974F21203E1890BE972
:103AC30075F006A4240CF508E5F0122F508A0CE5D6
:103AD30008250CFAE5093400FB1215A88A0C8B0D96
:103AE300AE0CAF0DEE4F6027AC08AD09790012158F
:103AF3000C1234B8E50BF0EE2508F8EF3509F98E12
:103B0300828F83A3A3A3A3A3A3A3A3A312357FEEAF
:103B1300FAEFFB024A6674F61203E1EAFEEBFF12C8
:103B23000CD2901092E0F8E9C39840099003451233
:103B33004C6B120CD8EE2402F8EF12527B90034721
:103B4300125135900347E004F0EEFAEFFB120CDE5E
:103B5300850882850983E0025731C082C0837900DA
:103B6300900345800109124C6B8A828B83E5824561
:103B73008370F20234B174F71203E1EAFEEBFFEE55
:103B83004F60569003451247F1604E888289837ACD
:103B9300007B00EE65827003EF6583600FAA82AB42
:103BA30083123BDFE5824583602F80E79003451254
:103BB3003BEB687002EF698E828F83700812357356
:103BC300900345800312602712357FEEFAEFFB1254
:103BD3001ED2EEFAEFFB1215AE0234E9123BE322DA
:103BE300123F5F8882898322123F5BEE22C082C02C
:103BF300839003458004888289831247F1600B8890
:103C03008289831242A3EC4D70EC8A828B83E4F0A9
:103C1300A3F0E849600688828983800390034512F4
:103C230034F90234B174F71203E190034580048A36
:103C3300828B83123C684B60257E0080010E123C10
:103C43006D50ECEE75F006A4FCADF0EA2CFCEB3DF8
:103C5300FDEC2410F582ED123CBD70E180047A0086
:103C63007B000234E912510AEA22123CC6EEC398E1
:103C73002274F71203E17D0080010D123CC2EDC3F3
:103C8300985034ED75F006A4FEA8F0E8FFEA2EFE86
:103C9300EB3FFFEE2410F582EF123CBD70DCED75B7
:103CA300F006A4FEE8FFEA2EFAEB3FFBEA2411F547
:103CB30082EB125BED4CF00234E9125BF9692212DC
:103CC3003CC622126533EB3400F583E0F82274F628
:103CD3001203E1120DF87A007B008025EAF8EBF974
:103CE300E875F006A4F8ACF075F006E9A42C1250C0
:103CF300DF1263F4A3E41251D5F0A31263FA126541
:103D03007190231C122BCF40D37A007B00801C8A36
:103D1300088B0974037808120A54124B93A374FE98
:103D2300F0A304124FB5A3E4126571902326123D4C
:103D33007040DC7A007B00801D8A088B097403784D
:103D430008120A5474D7125865740F1260AC74FECB
:103D5300F0A30412657190232C123D7040DB902375
:103D630030E493900353F0123D7A023588E493F8DC
:103D7300C3EA98EB9400227CE87D037A107B0090E1
:103D830003C2E0F91216622274F01203E174F51211
:103D930009538A088B09890A8C0BE9A2E050147530
:103DA30008FC7509FFA2E15005D2E4023E4DD2E3BF
:103DB300023E4D124A527003A3E069700579000276
:103DC3003F1AAC0A7902AA08AB09120DD4E960EDD7
:103DD300E50AF50C780C1208B079027CFE7DFFAA87
:103DE30008AB091247CD1208BFE96003023F18E58B
:103DF3000AC2E5F50A9003B5E07051E50AA2E64070
:103E03004B7403120B15AC82AD83AA08AB09120BDA
:103E130082E970321240EE8A0C8B0DA80CA90DE8D2
:103E2300FEE9FFE8496025EE24020A0AEF1228DFC3
:103E3300601AEE2402FCEF3400FD7403120B15AA82
:103E430082AB83121D58E50AD2E5F50A900348E0D8
:103E5300F50C900368E0F50EA3E0F50F780E120859
:103E6300AC7D017C00900348E0F9AA0EAB0F120D64
:103E73008C74021208BFE9F8900348E004F0E8608C
:103E830003023F18E50AA2E55004740E800274068B
:103E9300C0E07401120B15D0E01255478A0E8B0F48
:103EA300AE0EAF0FEE4F6069123F38123F4F88825C
:103EB30089837401F07478550AA3126539E50C12ED
:103EC3006539A3E508F0E509123F27E4F0E50AA206
:103ED300E5500F7403120B15AC82AD83E824061270
:103EE3003F1E8E828F83A3A374FDF0A374FFF0E5BE
:103EF3000B6015902333E493F8E50BC3985009EE58
:103F0300241312551AE50BF0EEFAEFFB120C248082
:103F1300067910800279C7740B8049FAE93400FBF3
:103F2300121D582288828983A3A3A3A3123F33229D
:103F33001252AEA322EE241712552B7401F0120F66
:103F430048EE241A12552BEAF0A3EB22F012652D4A
:103F53003400123F5922F583123F5F22E0F8A3E0B9
:103F6300F922740D1208BF7F080205F974F61203D3
:103F7300E17A007B10125A3560089003D47401F083
:103F8300802990064AE064019010D87006E0FC791D
:103F9300018004E0FC79037A007B00120CF6902385
:103FA3001A123FB17A007B10123FBF023588123FCD
:103FB300B522E493FC740193FD227B009003C2E0DD
:103FC300F912165C2274EC1203E18A088B098C0C3B
:103FD3008D0D890E7414120B151249AC7416120B45
:103FE30015E0F510A3E0F511120FC0E960077AFFA1
:103FF3007BFF0240EB9010D7E0640260030240DED7
:104003007900AA08AB09120DDAA90E120DCE8A1295
:104013008B13AE12AF13EE4F70030240C68E828F26
:1040230083A3A3A3A3A3E064018E828F83A3A370BE
:1040330069124C6B8E828F83A3A3A3A3A3A3E05423
:10404300186043902331E4938E828F83A3A3A3A3A9
:10405300F0EA650C7003EB650D6014EA650A700302
:10406300EB650B600AEA65107003EB6511701F784E
:10407300101208ACAC0AAD0BAA0CAB0D1210BC7439
:10408300021208BF8008900367125A1FA3F074FE40
:104093006A700374FF6B601D804EA3A3A3E06403E7
:1040A30060298E828F83A3A3A3A3A3E06404700576
:1040B3007AFE023FF38E828F83A3A3A3A3A3E064BC
:1040C3000270089003B4E0640270101240EE8B0B90
:1040D300EA450B6006AA08AB09800DAA08AB099054
:1040E3000349123A60121F3102601590037512479B
:1040F300D31210802274F71203E1EAFEEBFF120BD6
:10410300D6E9700AEEFAEFFB120BE2E96006EEFA6B
:10411300EFFB80047AFE7BFF0234E974F01203E1C3
:104123008A0A8B0B8C0E8D0F8909750800120FC03C
:10413300E979006003024295AA0AAB0B120DDAA9D2
:1041430009120DCE8A0C8B0DAE0CAF0DEE4F60191C
:104153008E828F83A3A3A3A3A3E06402705590036D
:10416300B4E064027003024293AA0AAB0B90034FBC
:10417300123A60121F31120BE88A0C8B0DA80CA99E
:104183000DE849700302429388828983A3A3A3A302
:10419300A3E0A2E04003024293750C01A2E1506840
:1041A3007901AC0AAD0BAA0EAB0F120D26E97064B0
:1041B3000242938E828F83A3A3A3A3A3E06403701D
:1041C30005750C0280528E828F83A3A3A3A3A3E061
:1041D300640160030242939003751242A38E828F9F
:1041E300831245F88A0C8B0DA80CA90DE84960D100
:1041F30090232AE493FA88828983E0C39A50C2A366
:10420300E0600302429380B988828983A3A3A3A3B6
:10421300A3D2E1F0EE4F603A8E828F83A3A3A3A3D0
:10422300A3A3E05418602B7508018E828F83A3A388
:104233001206C8750CFE750DFF780C1208AC7900D8
:10424300AC0AAD0BAA0EAB0F120DEC74041208BF2F
:10425300803E900368E0650E7004A3E0650F701460
:10426300902332E493FCA909AA0AAB0B120CF6754E
:104273000801801CA90CAC0AAD0BAA0EAB0F120DE2
:1042830026E9700C750801A909AA0AAB0B120D8067
:10429300A908023F6AE50C2415F582E50D12552E97
:1042A300124F8B2274EA1203E174F01209538A0C41
:1042B3008B0D8C088D097426120B15E0F514A3E001
:1042C300F5157512069003F51247F16023900375F7
:1042D3001242A3AA08AB091210AA8A108B11EA454D
:1042E30011600D8A828B83A3E0700579000245E09B
:1042F300E50C241DF50EE50D3400F50F850E821235
:1043030047DDF51388828983A3A3A3E0FA88828912
:1043130083A3A3A3A3E0F9EA2400FEE439FFAA08D8
:10432300AB09120D86850E82850F8312461BE02989
:10433300F50BE50AA2E5500375120E7487550A7052
:10434300177418550A6418600FE50C2417F582E5F5
:104353000D125BED651260077901121D40808C53CD
:104363000A78C3EE94F8EF94FF501D7900EEFAEF4C
:10437300FB1245EA601288828983A3A3A3A3A3A3A4
:10438300E0541860030242EE78081208AC7D001274
:10439300460E1208BFE9F874036870030242EEE8A0
:1043A30060030244597418550A700302450EE50A66
:1043B300D2E0F50AA2E45004D2E1F50AA90A124CAC
:1043C300641245EA605388828983A3A3A3A3A3A3AA
:1043D300E05418604488828983A3A3A3A3A3E06461
:1043E300017036E510451160309003751242A388C1
:1043F3008289831245F88A0E8B0FA80EA90FE8490C
:10440300601788828983A3E0600F851082851183FA
:10441300A312573C50030242EEE50AF50E780E1242
:1044230008B01246011208BFE9702B7C007D00859D
:10443300148285158374FFF0A3F0850C82850D83A8
:10444300A3A3A3A3A3A3A3A3E06003124298A90B6E
:10445300124C64121764851482851583E0F470038B
:10446300A3E0F460399003B4E0640270030242EE07
:1044730012499DE0FAA3E0123A5C121F31EA650883
:104483007003EB650960030242EEEEFAEF123A5C49
:10449300121F31851482851583EAF0A3EBF07808A7
:1044A3001208AC7D0112460E1208BFA90AEEFAEFFC
:1044B300FB120DDA8A088B09A808A909900368E0A2
:1044C300687003A3E06960030245D1EEFAEFFB12C3
:1044D3000BE88A088B09A808A909E849606E888255
:1044E3008983A3A3A3A3E06401600D88828983A3C6
:1044F300A3A3A3E064027054851882851983AC8258
:10450300AD83EEFAEFFB120B828055900361E060FE
:104513000FE50AF50E780E1208B01246011208BF15
:10452300E50AF50E780E1208B079027CFE7DFFEEE7
:10453300FAEFFB1247CD1208BFE960030244598525
:10454300148285158374FFF0A30244A0120F48EA76
:10455300FCEBFD851882851983AA82AB83121D5853
:10456300850C82850D83A3A3A3A3A3A3A3A3E064C4
:1045730001700F1242987408120B15AA82AB8312B2
:104583001D581247A71253B34430F5087808120890
:10459300B07401120B158582088583097808120807
:1045A300AC740B120B1585820885830978081208F1
:1045B300ACE513F50878081208B07900EEFCEFFDBE
:1045C300124C64120D2074061208BF0242EE124709
:1045D300A712551D12461BE50BF0120F6074101243
:1045E30008BF7F0E0205F9120DCE8A0E8B0FA80E9F
:1045F300A90FE84922A3A312510A1210AA22790192
:10460300AC08AD091250FF1247CD22AC0BA913120F
:1046130050FF120D8C7402221253BBA3A3A3A32237
:1046230074F01203E174F01209538A0C8B0DECFA47
:10463300EDFB750F089003F51247F160141257351F
:104643008A828B83E58245836007A3E07003024778
:10465300A21247A734001247DDF50B888289831223
:1046630047B0E0FBEC2400FEE43BFF88828983A390
:10467300A31247B0A3A3E0FBECF508E43BF50988DC
:10468300828983A3A3A3A3A3A3A3E0F50EE50AA2B0
:10469300E45003750F10A2E550067408250FF50FBB
:1046A300748F550A700FE50C2417F582E50D125B24
:1046B300ED650F60087901121D400247A2530A708D
:1046C3007800E50AA2E450221247A7125BED240802
:1046D300FCA3E03400FD7408120B15AA82AB83120D
:1046E3001D587808E50AC2E4F50AE50AA2E5502850
:1046F3001247A7125BED28F8A3E03400F9E8240879
:10470300FCE93400FD851882851983AA82AB8312E4
:104713001D58E50AC2E5F50AAC0EA90BEEFAEFFB4C
:10472300120D92E9F87403686075900368E06E7087
:1047330003A3E06F605EE87054E50AF50F780F128B
:1047430008B01247BE1208BFE97054780A1208B0C5
:104753007401120B1585820C85830D780C1208AC3D
:10476300740B120B1585820C85830D780C1208AC23
:10477300E50BF50A780A1208B0A90EAC08AD09EEEC
:10478300FAEFFB120D2074061208BF80127404683E
:10479300700D80B7780A1208B01247BE1208BF74B2
:1047A30010023F67E50C241DF582E50D22A3A3A3A8
:1047B300E0FC88828983A3A3A3A32279011249A4DD
:1047C30012552E1247D31247CD22120D4A740122DD
:1047D300E0FCA3E0FDAA08AB0922F583123BE3A3A7
:1047E300E0F50A88828983A3A3E02290033912515A
:1047F300662274E81203E174F5120953EAFEEBFF33
:104803008C088D0989147423120B15E0F50F742499
:10481300120B15E0F512A3E0F5137426120B15E045
:10482300F516A3E0F5177428120B15E0F50EA90F82
:10483300120D988A108B117401120B157408F0E590
:104843000EA2E450037410F0E50EA2E55004E02438
:1048530008F0851882851983AA82AB83120FA88A70
:104863000C8B0DEA450D7003024984EA2417F58287
:10487300EB124996120F48E50C241AF582E50D1246
:10488300551D1234F97403120B15AC82AD83AA10B3
:10489300AB11120B82E9601D12498E7403120B15C2
:1048A300A882A983E50C2418F582E50D12551DE8AD
:1048B300F0A3E98024E50EA2E4501FE5106E700317
:1048C300E5116F701512498EE50C2418F582E50D7C
:1048D30012551DE512F0A3E513F012499D1249ACE0
:1048E300850A82F5837402F0A3E50E1249B4E50F3D
:1048F300F0EE850A82850B83A3A3A3F0EF850A82DA
:10490300850B83A3A3A3A31249B4A3A3A3E508F030
:10491300E509850A82850B83A3A3A3A3A3A3F0AA16
:1049230010AB11120D86E92514850A82850B83A32A
:10493300A3A3A3A3A3A3F0750800E50EA2E450115B
:10494300AC12AD13E50A2408FAE50B123F207508F3
:1049530008E50EA2E55014AC16AD17E50A2508F8D4
:10496300E50B3400F9E82408123F1E850C82850DFF
:1049730083A3A3E510F0A3E511F0AA0CAB0D120C71
:1049830024740B1208BF7F100205F9E50C2416F5F9
:1049930082E50D12552E7401F0221249A412552EF0
:1049A30022E50C126534E50D22E0F50AA3E0F50BD0
:1049B30022F0850A82850B83A3A32274F21203E1FA
:1049C3008A088B09ECFEEDFF890A7900124A5270BE
:1049D30003A3E069700479018073750B0190036888
:1049E300E065087004A3E06509601F750B00780B90
:1049F3001208B0A90AEEFCEFFDAA08AB09120FFCDE
:104A030074011208BFE9F50B80417900EEFAEFFB60
:104A1300120DCEEA4B602B8A828B83A3A3A3A3A39D
:104A2300A3E05418601C7508FE7509FF7808120886
:104A3300AC8A828B83A3A31206C81263491208BFF0
:104A430080097901EEFAEFFB120CA8A90B8014126E
:104A53000DDA8A0C8B0DA80CA90D900368E068226F
:104A63001208BF7F060205F974F41203E175081FEB
:104A730075090E7A101260518B0BEA450B70031205
:104A83003D7A900353E014F0700C902330E493903C
:104A93000353F0120DE67E007F00806C850882854B
:104AA3000983A3A3A3A3E06059F46056E508240493
:104AB300F582E509125A197049850882850983A38D
:104AC300A3A3A3A3E064037019790285088285096F
:104AD300831242A3850882850983A3A3124C6B1218
:104AE3000D26850882850983A3A3A3A3A3E06401FC
:104AF300601085088285098374FEF0A304124BC5F8
:104B0300E4F01230F6122F4890231E1261AD408C50
:104B13007E007F008039120EEE8E088F09740378B1
:104B230008120A5474972508FC740F3509FD7A326C
:104B33007B0D120EDCEA4B70DD8E088F097403784F
:104B430008120A54124B931263F4E4F01230F690F5
:104B53002326E493F8C3EE98EF9400501B8E088F3E
:104B63000974037808120A54124B9BE82407F58250
:104B7300E9125A1970D680A17E007F00800A124B79
:104B8300A6600214F01230F61261AA40F10237292E
:104B9300124B9B888289832274972508F8740F35FA
:104BA30009F922EEF8EFF9E875F006A4F8AAF07512
:104BB300F006E9A42AF9743728F582740F39F583CE
:104BC300E022124BCCA3A3A322F08508828509839C
:104BD300A3A32274F71203E174E1120953ECFEED6F
:104BE300FF750800EE4F60728A828B83E0241C12EB
:104BF3005A4A1247F160638A828B83124C6B851881
:104C030082851983AC82AD83EA241BF582EB1259AA
:104C13001BEA241CF582EB124C67120F30740B1243
:104C23000B15124C6F7003A3E069702E7402120B04
:104C330015E064017024741D120B15123A60E064D0
:104C4300017017741D120B15123A62A3A3E0F88EBC
:104C5300828F83E0687003750801A908741F02340A
:104C6300E61249A43400F58312510A2212289DE06A
:104C7300682274F41203E1E97024790090034D1261
:104C83003A60121F318A0A8B0BAE0AAF0B74FE6EA9
:104C9300700374FF6F701A90232DE49360137901EE
:104CA30090034D123A60121F318A0A8B0BAE0AAF82
:104CB3000B120F6C02325E74F61203E174F31209E5
:104CC3005312151E8A088B09AE08AF09900368E0DA
:104CD3006E7003A3E06F60E9120F54EA6E7002EB8B
:104CE3006F60DEEEFAEFFB120FC0E970D4EE4F6097
:104CF300D0851882851983E4F004120B15EEF0A316
:104D0300EF124D1DE970BA74FE6E700374FF6F608D
:104D1300B0EEFAEFFB740D02358512360A120B9AC8
:104D230022C082C083120F6C0234B17F0A0205F9DC
:104D330074F21203E1EAFEEBFF8C0A8D0B8908740F
:104D43000E120B15E0F50974FC6E700374FF6F709F
:104D5300057900024A667900120DDA8A0C8B0DAED2
:104D63000CAF0D900368E06E7003A3E06F7006E56F
:104D730009A2E650DCA909126237706179007AFE54
:104D83007BFF1262377056741855097003024E6A1E
:104D9300780079008003122A9790231E122A8E40EE
:104DA30003024E6AE8FAE9FBEA75F007A4FAACF0ED
:104DB30075F007EBA42CFB74252AF582740E3BF5E2
:104DC30083E0541870D0E875F007A4F8AAF075F0E2
:104DD30007E9A42AF9741F28F8740E39F98882891F
:104DE30083A3A3A3A3A3A3E05418600974185509CC
:104DF3007003024D5488828983EEF0A3EFF074FEB2
:104E0300650A700474FF650B6003124F91888289F1
:104E130083A3A3A3A3A3A3E509F0A2E0500D888273
:104E23008983A3A3A3A3A3A3D2E2F0740165088893
:104E3300828983A3A3A3A3A370387401124FB5E09F
:104E430054186028902331E49388828983A3A3A311
:104E5300A3124F7F1210AA8B0DEA450D6003024D7A
:104E6300547800790080397902024D56900367E047
:104E730080D7E064017003024D5488828983A3A321
:104E8300A3A3A3A3E054186007902331E493800401
:104E9300900366E0123F27E508F0024D54122A976B
:104EA300902327E493FAC3E89AE994004003024D60
:104EB300547A007B00804BEAFCEBFDEC75F007A411
:104EC300FCAEF075F007EDA42EFD74212CF5827471
:104ED3000E3DF583125536E8FCE9FDEC75F017A499
:104EE300FC85F00975F017EDA42509FD74AF2CF5C9
:104EF30082740C3DF583E06E7003A3E06F609E1235
:104F03002FCB90231E122F5840AD123FB1EC6A7085
:104F130002ED6B7088E875F017A4F8AAF075F01726
:104F2300E9A42AF974AF28FE740C39FF7C177D00BD
:104F33007900EEFAEFFB12150C8E828F83124F97D6
:104F4300900375124F71A3A3A3A3A3A3E8F0A3E94E
:104F5300124F777401F0EE240E12551A7401124F9A
:104F63009F120290EE240D12551AE8024E9C123441
:104F7300C9A3A322F0EE240F12552B22F0124F885F
:104F8300AA0AAB0B22900375E0FCA3E0FD22888202
:104F93008983A3A3E50AF0A3E50BF022F0124FA443
:104FA3002290232AE4932401F8E43400F97A027B63
:104FB3000022123F33A32274ED1203E18A088B0906
:104FC300890E1250E8400579050250B61217ACAAB3
:104FD30008AB091251BA90231C1250B9650A700329
:104FE300E9650B70077AFE7BFF1251BA90231CE42C
:104FF3001250C1E50A98E50B9940030250B41250D0
:10500300C56012E50A75F006A4F875F006E50B1203
:1050130051101215AEE50E6018E50A75F006A4F8F6
:10502300AAF075F006E50B12513C701A7901025093
:10503300B6E50A75F006A4F8AAF075F006E50B12BA
:10504300511DE4F0A3F0E50A75F006A4F8AAF07583
:10505300F006E50B1250DDA31253C988828983A39E
:10506300AA82AB8312512B8A828B83E0603F12505A
:10507300C5603A8E108F1175120078101208A8E5DA
:105083000EC333FCE433FDE50A75F006A4F50AA864
:10509300F075F006E50BA428F50B743B250AF582A1
:1050A300740F350B124C69122F691208BF790080F7
:1050B30002790702624D122BF0E822902314125B4F
:1050C300D422E50A75F006A4F8AAF075F006E50BFC
:1050D300125118F8A3E0F9E84922A42A1252718860
:1050E300828983A322ECFEEDFF902328E493F8E961
:1050F300C39822F58312510A1215AE22E50C1265EC
:1051030034E50D3400F583E0FAA3E0FB22125118D5
:10511300FAA3E0FB2212511DE022A42AF9743B28D2
:10512300F582740F39F58322E50EF09010D91251F0
:105133003522E088828983F022125295F50CE934F6
:1051430000F50DE50EC333FAE433FB1215A8850C05
:1051530082850D83EAF0A3EBF0850C82850D831223
:10516300516622123F5FE8492274F41203E1ECFE18
:10517300EDFF740C120B151235738808890912514F
:10518300BAAC0AAD0BECF8EDF990231C1251C250E6
:1051930021E875F006A4F8AAF075F006E91250DDCF
:1051A300E08E828F831251D51251CB12357F790055
:1051B30080027904023729120D5C8A0A8B0B2212B2
:1051C3002F61C3EC9AED9B22123F5B850882850910
:1051D30083221252AA2274F61203E17E007F00801A
:1051E30028EEF8EFF9E875F006A4F8ACF075F006D0
:1051F300E9A42CF9743928F582740F125E586A7089
:1052030003A3E06B60571230F61261AA40D3126118
:10521300A57002E96F704674FE6A700374FF6B70C9
:105223003C7E007F0080031230F61261AA502E12DA
:105233004BA670F3EEF8EFF9E875F006A4F81252F6
:105243006712529C6017125283F8E912527B8882CC
:105253001250F6850882850983E4F0A3F0EEFAEF95
:10526300FB02358875F006E912526F22A42AF974FD
:105273003728F8740F39F9223400F988088909228C
:10528300EEF8EFF9E875F006A4F875F006E91252A6
:10529300952212526FE8240422A3A374FE1252A78C
:1052A30012516622F0A3041252AE22F0888289833F
:1052B300A3A3A3A32274F61203E1EA241DF582EB50
:1052C3001253B3F9604BEA241DF582EB125BED2414
:1052D30002FCA3E03400FD1250EC40030253A67815
:1052E3000080298C828D83E0F508A3E0FFE5082484
:1052F30000E43FF509E833FEE433FF747F2EF582C3
:10530300740F3FF5831253C91253A908E8C3994098
:10531300D28A828B83A3A3A3A3A3A3A3A3A312428F
:10532300A3900368E06C7003A3E06D700F7C7F7D36
:105333000F122806124C67120D508067EA2411F5EC
:1053430082EB125BED605CFC74FF2CF07508017856
:10535300081208B075087F75090F78081208ACE9C0
:10536300F50878081208B0EA2412F582EB125BED17
:10537300F50878081208B0EA2415F582EB12551DDA
:105383001206C8ECF91228061242A08A828B83A364
:10539300A3A3A3A3A3A3A3A3124C6B120D68740727
:1053A3001208BF023588EC24020C0CED3400FD22F8
:1053B30012552E1253BBE022E0F8A3E0F583888256
:1053C300A32288828983E508F0A3E509F02274EA21
:1053D3001203E174FD1209538A148B158C0E8D0F81
:1053E300890D7419120B15125536741B120B15E027
:1053F300F511741C120B15E0F50C741D120B15122C
:1054030049AC741F120B15E0F5106008E50CC333AB
:10541300240480027402C0E07401120B15D0E01260
:1054230055478A088B09EA450970030255128A8297
:105433008B83A3A3E514F0A3E515126040E50EF0FA
:10544300A3E50FF0EA2413F582EB12551DE50DF0E9
:10545300EA2414F582EB12551DE511F0EA2417F541
:1054630082EB125BED64017040120F4E8A0E8B0FBC
:10547300A80EA90F850882850983A3A3A3A3E068C7
:105483007003A3E0696022EE4F6011E508241AF56A
:1054930082E50912551DEEF0A3EF800CE5082417F1
:1054A300F582E50912551DE4F01255211255368E89
:1054B300828F837405F0A3E5107004E50C804874B3
:1054C30001250C1255407A008028850A82850B83BA
:1054D300E012553C850A82850B83A3E08E828F837D
:1054E300F0E50A2402F50AE50B3400F50BA30EAF31
:1054F300830AEAC3950C40D2120F4EEA12553C12AE
:105503000F4EEB8E828F83F0AA08AB09120C247422
:10551300030245E2EE240CF582EF12552E221228E7
:105523001712552E22EE240BF582EF3400F5832259
:10553300900334E0FEA3E0FF228E828F83F0A3AEBC
:1055430082AF832212360A120FA822C082C083E9D7
:10555300C333FCE433FDEA2CFAEB3DFBEA24FEF50E
:1055630082EB34FF124C690234B174F21203E18905
:10557300098A0A1250E840047900804075080080C7
:10558300020508E508C39509502AE508C333F8E482
:1055930033F9EE28F582EF39F583C082C083120F09
:1055A3004E8A0C8B0DD083D082E0650C7004A3E08F
:1055B300650D70CDE50A650870BE7901024A66740F
:1055C300F01203E174F31209538A088B098C0A8DD4
:1055D3000B890C750D00120FC0E9790060030256A8
:1055E300C4AA08AB09120DDAA90C120DCE8A0E8BD0
:1055F3000FAE0EAF0FEE4F70030256C28E828F8333
:10560300A3A3A3A3A3A3E0A2E240030256C2120FE3
:105613004EEA650A7003EB650B7011780D1208B042
:10562300E4F50EF50F780E1208AC8044AA0AAB0B12
:10563300120BDCE964017068851882851983740490
:10564300F07401120B15124F97851882851983AADE
:1056530082AB83120B9AE964017045750D01780DD5
:105663001208B0E4F50EF50F780E1208AC750D00B4
:10567300780D1208B0780D1208B07408120B158556
:10568300820E85830F780E1208AC902333E493F9CE
:10569300AC0AAD0BAA08AB09120D6874071208BF58
:1056A3008E828F83A3A3A3A3A3A3E0A2E1400D8EC5
:1056B300828F83A3A3A3A3A3A3C2E2F0750D01A9C1
:1056C3000D023F6574F61203E1E9FE7900120DDA6B
:1056D300EEF9120DCE8A088B09A808A909E84960DA
:1056E3000612657BF98002790402358874F6120389
:1056F300E17E0790035CE070341257358A088B090A
:10570300A808A909E8496025900361E0640188823B
:105713008983A3A3700B12573C888289835001A30A
:10572300A3E0F91210C8E9FEEE70027E07EEF9025B
:105733003588124F881210AA22E0FA88828983A33F
:10574300E0C39A2274EE1203E1EAFEEBFF890A8CAE
:105753000C8D0B7412120B151234BD12581112500A
:10576300EF5051890E750F007403780E120A5474AA
:105773009D250EF582740F350FF583E0F8E50CC314
:1057830098502DE50B602475110074037810120AEC
:105793005474972510F8740F3511F988828983A3FF
:1057A300A3A3A3A3A3E50C12581BF07900024D2E6B
:1057B300790380F979007AFE7BFF125811E493652F
:1057C300107004790280E6E50B60E0890E750F0026
:1057D3007403780E120A547497250EF8740F350F5C
:1057E300F988828983A3EEF0A3EF12581B124FB5F9
:1057F300E50C123F2F74FF1263FAE50AF09003667B
:10580300E088828983A3A3A3A3A3A3A3809C120DEF
:10581300C8E9F5109023262212653DA3E508F0A3FD
:10582300E5092274F61203E1ECFF120DC89023265A
:105833001250EF5027890875090074037808120A7B
:1058430054749C125865740F1260ACE0F8EFC3985F
:105853005006EFF07900800679038002790402355F
:1058630088EA2508F5822274F41203E1EAFEEBFFCD
:10587300120DC8E9F50A9023261250EF5019750B43
:10588300007403780A120A54749A250AF582740F75
:10589300350B124C69801890034B1247F1600CEEE4
:1058A300FAEFFB123A63121F3180047AFE7BFF0288
:1058B300372974F61203E18A828B83A3A3A3A3A3DC
:1058C300E4F0F880010890232CE493F9E8C399509D
:1058D3001E88081259138C828D83A3A3A3A3A3A3A9
:1058E300A3A3E06970DFECFAEDFB120EF4801EE473
:1058F300936870198C828D83A3A3A3A3A3A3A3A3EB
:10590300A37406F07A008C828D83125A3E02358886
:10591300741F2508F5827410125BF9F92274F412CE
:1059230003E1EAFEEBFF8E828F83A3A3E014125AF6
:1059330055A3E0F9120ED08A088B09EA45097003D2
:10594300025A168E828F83A3A3E070358A828B83DB
:10595300A3A3A3A3A3A3A3A3A3E064028A828B8329
:10596300A3A3A3A3A3A3A3A3A360107406F07AF035
:105973008508828B83125A3E025A167406F0025A25
:10598300168E828F83A3A3A3A3A3A3E060738E8247
:105993008F83A3A3A3A3E0607AEE2403F582EF121F
:1059A3005A19706F900355125A1F125A55E0141268
:1059B3006037E06403705C8E828F83A3A3A3A3E0AC
:1059C300700DAC08AD09EEFAEFFB120D9E80448A10
:1059D300828B83A3A3A3A3A3A3A3A3A37404F012FF
:1059E300151EEA540F04850882850983A3A3A3A384
:1059F300F0A3E4F07A20FB125A357017125A28806C
:105A0300128A828B83A3A3A3A3A3A3A3A3A3E06468
:105A13000360AF023729125BF914F022E08E828F04
:105A230083A3A3A3227A207B009003C2E0F912157B
:105A330060221260538B09EA450922E0240C125AB2
:105A43004AE0F9120E1622F8A3E03400F98882899D
:105A53008322125A5AA322123565A3A3A32274F6F2
:105A63001203E179007E0080258E08750900740316
:105A73007808120A5474D72508FA740F3509FB8A7B
:105A8300828B83A3A3E06005120DA479010E9023FA
:105A93002CE493F8EEC39840D0E9A2E07A407B006F
:105AA3009003C2E0F9501512166E8B09EA4509708E
:105AB3000E7C647D007A40123D80800312166802DA
:105AC300358874F41203E1ECFEEDFF7508D7750910
:105AD3000F7C008045850882850983A3A3A3A3A324
:105AE300A3A3E0F8EA2412F582EB125BED68701FC2
:105AF300850882850983123573125BF1687003A3ED
:105B0300E069700B850882850983A3A3E070200CEC
:105B1300E5082408F8E50912527B90232CE493F856
:105B2300ECC39840B0E4936C700579000237298583
